:1000000000060020D9040000E9040000E904000013
:1000100000000000000000000000000000000000E0
:10002000000000000000000000000000E9040000E3
:100030000000000000000000E9040000E9040000E6
:10004000E9040000E9040000E9040000E9040000FC
:10005000E9040000E9040000E9040000E9040000EC
:10006000E9040000E9040000E9040000E9040000DC
:10007000810D0000E9040000E9040000E90400002B
:10008000E9040000E9040000E9040000E9040000BC
:10009000E9040000E9040000E9040000E9040000AC
:1000A000E9040000E9040000E9040000E90400009C
:1000B000E9040000E9040000E9040000E90400008C
:10040000FFFFFFFFFFFFFFFFFFFFFFFFFE3DFFFFBF
:1004100010B5064C2378002B07D1054B002B02D0DA
:10042000044800E000BF0123237010BD6CFEFF1FD5
:100430000000000084590000044B10B5002B03D0CD
:100440000349044800E000BF10BDC04600000000A2
:1004500070FEFF1F84590000402292029A1A9246B1
:100460007047C046174B002B00D1134B9D46FFF73A
:10047000F3FF00218B460F461348144A121A03F06B
:10048000C8FA0E4B002B00D098470D4B002B00D024
:1004900098470020002104000D000D48002802D0DC
:1004A0000C4800E000BF03F087FA2000290000F0AC
:1004B000FDF903F05BFAC0460000080000000000F0
:1004C00000000000000600206CFEFF1F60000020FE
:1004D000000000000000000072B601F05DFB01F0BA
:1004E00079FB62B6FFF7BEFF00480047E904000051
:1004F0000023C25C0133002AFBD1581E7047000064
:1005000003B47146490840004900095E49008E4421
:1005100003BC7047002243088B4274D303098B420B
:100520005FD3030A8B4244D3030B8B4228D3030CC3
:100530008B420DD3FF22090212BA030C8B4202D365
:100540001212090265D0030B8B4219D300E0090A8D
:10055000C30B8B4201D3CB03C01A5241830B8B4296
:1005600001D38B03C01A5241430B8B4201D34B037F
:10057000C01A5241030B8B4201D30B03C01A5241E4
:10058000C30A8B4201D3CB02C01A5241830A8B4269
:1005900001D38B02C01A5241430A8B4201D34B0252
:1005A000C01A5241030A8B4201D30B02C01A5241B6
:1005B000CDD2C3098B4201D3CB01C01A524183096A
:1005C0008B4201D38B01C01A524143098B4201D3A4
:1005D0004B01C01A524103098B4201D30B01C01ACF
:1005E0005241C3088B4201D3CB00C01A5241830849
:1005F0008B4201D38B00C01A524143088B4201D376
:100600004B00C01A5241411A00D2014652411046D5
:100610007047FFE701B5002000F0F0F802BDC046CA
:100620000029F7D076E7704703460B437FD40022BA
:1006300043088B4274D303098B425FD3030A8B4276
:1006400044D3030B8B4228D3030C8B420DD3FF22E0
:10065000090212BA030C8B4202D31212090265D0AE
:10066000030B8B4219D300E0090AC30B8B4201D361
:10067000CB03C01A5241830B8B4201D38B03C01AA8
:100680005241430B8B4201D34B03C01A5241030B1F
:100690008B4201D30B03C01A5241C30A8B4201D3D0
:1006A000CB02C01A5241830A8B4201D38B02C01A7B
:1006B0005241430A8B4201D34B02C01A5241030AF2
:1006C0008B4201D30B02C01A5241CDD2C3098B42D7
:1006D00001D3CB01C01A524183098B4201D38B0154
:1006E000C01A524143098B4201D34B01C01A5241F7
:1006F00003098B4201D30B01C01A5241C3088B423C
:1007000001D3CB00C01A524183088B4201D38B0026
:10071000C01A524143088B4201D34B00C01A5241C8
:10072000411A00D201465241104670475DE0CA0F9F
:1007300000D04942031000D34042534000229C465F
:1007400003098B422DD3030A8B4212D3FC22890169
:1007500012BA030A8B420CD3890192118B4208D33F
:10076000890192118B4204D389013AD0921100E0A1
:100770008909C3098B4201D3CB01C01A52418309B5
:100780008B4201D38B01C01A524143098B4201D3E2
:100790004B01C01A524103098B4201D30B01C01A0D
:1007A0005241C3088B4201D3CB00C01A5241830887
:1007B0008B4201D38B00C01A5241D9D243088B42DD
:1007C00001D34B00C01A5241411A00D20146634680
:1007D00052415B10104601D34042002B00D54942E4
:1007E000704763465B1000D3404201B5002000F023
:1007F00005F802BD0029F8D016E770477047C046DB
:1008000080B584B000AF7860114B1B68002B02D11B
:100810000F4B104A1A600E4B1B68FB600C4B1A689A
:100820007B68D2180C4B9A4207D903F099F8030061
:100830000C221A6001235B4206E0054B1A687B68B4
:10084000D218034B1A60FB681800BD4604B080BD87
:1008500088FEFF1F600000206002002080B584B089
:1008600000AFF860B960FB1D1A70BB681F2B05D97B
:100870000A4B0B4A0B48FF2103F054F8FB1D1A7872
:10088000BB689B00F968CB181900074B0B43120299
:100890001A60C046BD4604B080BDC046444A000050
:1008A00018560000504A000000001014B0B5D4B033
:1008B00002AF4823FF33FB1800221A702023FF33B6
:1008C000FB1800221A700023A0225200BA181360ED
:1008D000002001F0F5FD012001F0F2FD01F0ECF83F
:1008E000D74B022201211800FFF7B8FFD44B022298
:1008F00002211800FFF7B2FF01F036FB012300933D
:10090000002300220021002000F0A8FCCD4B19009C
:10091000002000F063FCC82001F0FEFA002002F085
:10092000E1FED0217B18C84A31CA31C37A18DC23D2
:10093000FB181900002002F0E3F9C44B1900002055
:1009400000F04CFC0A2001F0E7FAC14B190000202E
:1009500000F044FC0A2001F0DFFABE4B1900002031
:1009600000F03CFC0A2001F0D7FABB4B1900002034
:1009700000F034FC0A2001F0CFFAB84B1900002037
:1009800000F02CFC0A2001F0C7FAB54B190000203A
:1009900000F024FC0A2001F0BFFAB24B190000203D
:1009A00000F01CFC0A2001F0B7FAAF4B1900002040
:1009B00000F014FC0A2001F0AFFAAC4B1900002043
:1009C00000F00CFC0A2001F0A7FAA94B1900002046
:1009D00000F004FC0A2001F09FFAA64B1900002049
:1009E00000F0FCFB0A2001F097FA00F027FC02005F
:1009F0004021FF317B181A707B181B780A2B00D11D
:100A0000A2E100DAA6E1692B00DDA3E1612B00DAA7
:100A1000A0E1613B082B00D99CE19A00964BD318CA
:100A20001B689F46954B1900002000F0D7FB0A2059
:100A300001F072FA924B1900002000F0CFFB0A205F
:100A400001F06AFA8F4B1900002000F0C7FB0A2062
:100A500001F062FA8C4B1900002000F0BFFB0A2065
:100A600001F05AFA894B1900002000F0B7FB0A2068
:100A700001F052FA77E1BC203B18854A32CA32C3F2
:100A80001168196012791A71112390225200B91855
:100A90000B60BB181A683B181900002002F0C8F957
:100AA000C0460021002002F003FA0300082BF8D012
:100AB00059E1784BA4225200BA18D218764B100094
:100AC000190032231A0002F09BFF322392225200B7
:100AD000B9180B60BB181A683B001900002002F01F
:100AE000A7F9C0460021002002F0E2F90300082B1C
:100AF000F8D038E19C203B18684A32CA32C332CA67
:100B000032C3116819609188998092799A711F2374
:100B100094225200B9180B60BB181A683B181900D0
:100B2000002002F085F9C0460021002002F0C0F943
:100B30000300082BF8D016E17C203B18584A32CA33
:100B400032C332CA32C31168196091889980927990
:100B50009A711F2396225200B9180B60BB181A68AD
:100B60003B181900002002F063F9C0460021002064
:100B700002F09EF90300082BF8D0F4E06C203B183B
:100B8000484A32CA32C31188198092789A700F236A
:100B900098225200B9180B60BB181A683B1819004C
:100BA000002002F045F9C0460021002002F080F943
:100BB0000300082BF8D0D6E0364BA422520094460E
:100BC000BC446344384A13CA13C313CA13C313CAB9
:100BD00013C324239A225200B9180B60BB181A6859
:100BE0003B001900002002F023F9C046002100203C
:100BF00002F05EF90300082BF8D0B4E0254BA422E4
:100C00005200BA18D218294B100019006B231A0091
:100C100002F0F6FE6B239C225200B9180B60BB1841
:100C20001A683B001900002002F002F9C0460021BA
:100C3000002002F03DF90300082BF8D093E0C046F5
:100C400000A00440A84A00008C4E0000D04A0000DA
:100C5000F44A0000184B00004C4B0000A44B00006D
:100C6000E84B00002C4C0000644C0000984C000045
:100C7000D04C0000104D0000F4550000244D000041
:100C80003C4D00005C4D0000744D0000884D00009C
:100C9000984E0000B8FEFFFFAC4E0000E04E000092
:100CA000004F0000204F0000304F0000544F000064
:100CB0002D4B1900002000F091FA642001F02CF96E
:100CC0002A4B1900002000F089FA642001F024F971
:100CD0002323A0225200B9180B60BB181A68244BBA
:100CE0001900002002F0A4F8C0460021002002F004
:100CF000DFF80300082BF8D02723A0225200B918F0
:100D00000B60BB181A681B4B1900002002F090F80A
:100D1000C0460021002002F0CBF80300082BF8D0D9
:100D200000F08CFA02004821FF317B181A70202055
:100D3000FF303B187A1812781A703B1801221900FC
:100D4000002002F075F8EBE70B4B1900002000F0D3
:100D500045FA08E04023FF33FB181A78074B1900C7
:100D6000002000F01FFEE8E5B84D0000DC4D00005B
:100D7000A8550000CC550000584E0000704E0000F1
:100D800080B500AF002002F0CBF8C046BD4680BD64
:100D900080B582B000AF204B7B607B6802221A6175
:100DA0007B6802225A617B681C4A9A617B681C4AF4
:100DB000DA617B68C8221A627B6800229A627B68CB
:100DC00000225A627B680022DA627B68134A9A64C6
:100DD0007B68144ADA647B6804221A657B68002207
:100DE0009A657B6800225A657B680022DA657B6819
:100DF00007330D4A1100180003F0B2F97B680B4A63
:100E00001100180003F0ACF97B6820229A71C046EB
:100E1000BD4602B080BDC0468CFEFF1FC04F000023
:100E200004FFFF1FCCFFFF1FCC4F0000D04F00007E
:100E300080B588B000AFF860B9607A600023BB610C
:100E4000FB68DB687B61FB681B693B613A697B6916
:100E50009A4205D93A697B69D31A013BFB6107E0E5
:100E6000FB689A6839697B69CB1AD318013BFB612F
:100E7000FB689A687B69D21AFB69934200D9130018
:100E8000FB61FA697B68934200D91300FB61FB6840
:100E90005A687B69D318FA69B968180002F0B0FD86
:100EA000BA69FB69D318BB61BA68FB69D318BB6028
:100EB0007A68FB69D31A7B607A69FB69D3187B6116
:100EC000FB689B687A699A4201D100237B61FB68C9
:100ED0007A69DA607B68002BB5D1BB691800BD4622
:100EE00008B080BD80B588B000AFF860B9607A60A6
:100EF000FB68DB68FB61FB689A68FB69D31ABB611E
:100F0000BA697B689A420ED9FB685A68FB69D318A4
:100F10007A68B968180002F073FDFA697B68D21824
:100F2000FB68DA601AE0BB697B61FB685A68FB69A1
:100F3000D3187A69B968180002F062FD7A68BB6953
:100F4000D31A7B61FB685868BA68BB69D3187A69A1
:100F5000190002F055FDFB687A69DA60C046BD46AB
:100F600008B080BD80B586B000AF78607B681B6933
:100F70003B617B68DB68FB603A69FB689A4208D892
:100F80007B689A68FB68D21A3B69D318013B7B6186
:100F900004E03A69FB68D31A013B7B617B69180066
:100FA000BD4606B080BD000080B58AB000AFF860D5
:100FB000B9607A603C4B1B78002B01D1FFF7E8FE4B
:100FC000FA6813005B009B18DB0048331A00364BAD
:100FD000D318BB61BB68FB61BB691B693B62BB6922
:100FE000DB687B6100237B623A6A7B699A422AD97B
:100FF000BB699A683B6AD31A3B613A697B68934242
:1010000000D913003B61BB695A683B6AD1183A6941
:10101000FB69180002F0F4FC7A6A3B69D3187B6222
:10102000FA693B69D318FB617A683B69D31A7B6024
:101030003A6A3B69D3183B62BB699B683A6A9A4239
:1010400001D100233B627A693B6AD31A3B613A695A
:101050007B68934200D913003B613B69002B18D099
:10106000BB695A683B6AD1183A69FB69180002F0FB
:10107000C7FC7A6A3B69D3187B62FA693B69D3186B
:10108000FB617A683B69D31A7B603A6A3B69D31883
:101090003B627B6A002B02D0BB693A6A1A617B6AA9
:1010A0001800BD460AB080BD8CFEFF1F80B586B01B
:1010B00000AFF860B9607A60EFF31083012181F32B
:1010C00010887B617A68B968FB681800FFF76CFFCD
:1010D00003003B617B6983F310883B691800BD46C0
:1010E00006B080BD80B588B000AFF860B9607A60A6
:1010F000BB68BB61FB685A1C13005B009B18DB00DC
:10110000234A9B187B617B695B69022B2ED036D802
:10111000002B02D0012B16D031E07B691800FFF7BD
:1011200021FF03003B613A697B689A4202D20023A7
:10113000FB6127E07B68FB617A68B9697B6918000D
:10114000FFF7D0FE1EE07B691800FFF70BFF0300DE
:101150003B613A697B68934200D91300FB61FA69ED
:10116000B9697B691800FFF7BDFE0BE07A68B969C1
:101170007B691800FFF75CFE0300FB6102E00023BF
:10118000FB61C046FB691800BD4608B080BDC04683
:101190008CFEFF1F80B586B000AFF860B9607A6042
:1011A0000D4B1B78002B01D1FFF7F2FDEFF31083FD
:1011B000012181F310887B617A68B968FB681800A7
:1011C000FFF790FF03003B617B6983F310883B6965
:1011D0001800BD4606B080BD8CFEFF1F80B584B0F0
:1011E00000AF786039603B681800FFF781F90300B1
:1011F000FB60FA6839687B681800FFF7CBFF0300D3
:101200001800BD4604B080BD80B582B000AFFB1CA5
:10121000012219000020FFF749FF03007B607B6873
:10122000012B03D1FB1C1B787B6002E001235B4296
:101230007B607B681800BD4602B080BD80B582B07F
:1012400000AFFFF7E1FF03007B607B68002BF8DB5A
:101250007B681800BD4602B080BD000080B586B036
:1012600000AFF860B9607A603B602F4B1B78002BB1
:1012700001D1FFF78DFD2C4B1B691A00FB689342CF
:101280004AD2EFF31083012181F310883B61FB68A0
:10129000002B31D02449FB685A1C13005B009B18BB
:1012A000DB00BA685A502049FB685A1C13005B00E7
:1012B0009B18DB00CB1804337A681A601A49FA6865
:1012C00013005B009B18DB00CB1820333A681A60D0
:1012D0001549FA6813005B009B18DB00CB18283314
:1012E00000221A601049FA6813005B009B18DB00AB
:1012F000CB18243300221A600B49FA6813005B00F4
:101300009B18DB00CB182C333A6A1A603B6983F3D5
:10131000108800237B6102E001235B427B617B69D3
:101320001800BD4606B080BD8CFEFF1F80B584B09E
:1013300000AF78600A00FB1C1A707B689B68FB603A
:10134000FB685A1C7B685B689A420FD87B681A68F6
:10135000FB68D318FA1C12781A70FB685A1C7B6859
:101360009A607B68DB685A1C7B68DA607B689A68E5
:101370007B685B689A4215D17B6818697B6819683D
:101380007B689B681A00FFF705FF02007B689B687B
:101390009A4204D07B6801225242DA6002E07B6804
:1013A00000229A60C046BD4604B080BD80B58AB0B8
:1013B00000AFF860B9607A603B60BB683B620123B4
:1013C0007B620123FB6108E07968386AFFF7A2F8C5
:1013D00003003B62FB690133FB613A6A7B689A4216
:1013E000F2D23A68FB699A4201D93B68FB617B6B98
:1013F000012213402BD13B6B002B28D07B6B0222A8
:10140000134007D03B68002B04D11B23FB1830226C
:101410001A7003E01B23FB1820221A700EE03B6BAE
:10142000013B3B631B23FB181A78FB681100180073
:10143000FFF77CFFFB68DB68002B07DB3B6B002BB7
:1014400005D0FA693B6B9A42E9D300E0C046FB68DD
:10145000DB68002B57DB3B68012B03D93B68013B62
:101460003B600AE0796AB868FFF754F803007B61D3
:101470007A697B689A4200D204E07B6A7A685343B7
:101480007B62E8E7796AB868FFF744F803007B619C
:101490007B697A6A5343BA68D31ABB601C4A7B697A
:1014A000D3181A78FB6811001800FFF73FFFFB689C
:1014B000DB68002B09DB7968786AFFF72BF80300FB
:1014C0007B627B6A002BDDD100E0C0467B6B012292
:1014D000134018D03B6B002B15D00BE03B6B013B4E
:1014E0003B63FB6820211800FFF720FFFB68DB68E7
:1014F000002B07DB3B6B002B05D0FA693B6B9A4254
:10150000ECD300E0C046C046BD460AB080BDC04630
:10151000B056000090B589B002AFF860B9607A604B
:101520003B60BB68DA179B1853403B6101237B612A
:1015300009E07B6819003869FFF776F803003B6122
:101540007B6901337B617B683A699A42F1DA3A68D8
:101550007B699A4201D93B687B61BB6A002B09D049
:10156000BB68002B03DBFB6A0422134002D0BB6A7A
:10157000013BBB62FB6A0222134002D03B68002B96
:101580001CD0FB6A0122134018D1BB6A002B15D076
:101590000BE0BB6A013BBB62FB6820211800FFF730
:1015A000C5FEFB68DB68002B07DBBB6A002B05D0A0
:1015B0007A69BB6A9A42ECD300E0C046FB68DB68FC
:1015C000002B4BDBBB68002B08DABB685B42BB60BF
:1015D000FB682D211800FFF7A9FE08E0FB6A042232
:1015E000134004D0FB682B211800FFF79FFEFB6817
:1015F000DB68002B32DBFB6A022213401FD0FB6A40
:10160000012213401BD13B68002B18D1BB6A002B71
:1016100015D00BE0BB6A013BBB62FB6830211800B0
:10162000FFF784FEFB68DB68002B07DBBB6A002B3F
:1016300005D07A69BB6A9A42ECD300E0C046FB68E9
:10164000DB68002B0ADBB9683C687A68F868FB6ADB
:101650000193BB6A00932300FFF7A8FEC046BD4676
:1016600007B090BD90B5A3B002AFF860B9607A60E2
:1016700050217B181022BA181A607B1840225A6039
:101680007B1800229A607B18FA681A617B18002286
:10169000DA607F217B18BA6812781A70BB68013350
:1016A000BB607B181B78002B00D157E17B181B789F
:1016B000252B00D042E100233B670123BB677F213C
:1016C0007B18BA6812781A707B181B78302B10D0F0
:1016D00027DC2D2B05D024DC232B1AD02B2B10D06C
:1016E0001FE03B6F012213433B67BB680133BB60C4
:1016F0001AE03B6F022213433B67BB680133BB60B8
:1017000012E03B6F042213433B67BB680133BB60AD
:101710000AE03B6F082213433B67BB680133BB60A1
:1017200002E00023BB67C046BB6F002BC7D100237C
:10173000FB667F217B18BA6812781A707B181B78B9
:101740002F2B12D97B181B78392B0ED8BB6801338D
:10175000BB60FA6E13009B009B185B001A007B189D
:101760001B78D318303BFB66E3E700237B677F21C0
:101770007B18BA6812781A707B181B782E2B1ED132
:10178000BB680133BB607F217B18BA6812781A707E
:101790007B181B782F2B12D97B181B78392B0ED86E
:1017A000BB680133BB607A6F13009B009B185B0022
:1017B0001A007B181B78D318303B7B67E3E77F2345
:1017C000FB18BA6812781A707F22BB181B786C2B32
:1017D00003D0BB181B78682B08D1BB680133BB60F2
:1017E0007F23FB18BA6812781A70EDE77F23FB1885
:1017F0001B78252B00D195E000DA9AE0782B00DDEC
:1018000097E0582B00DA94E0583B202B00D990E069
:101810009A00634BD3181B689F467B681B68191D91
:101820007A6811601B68BB6767217B18BA6F1A70F2
:101830007B181A785023FB1811001800FFF776FD6B
:1018400078E07B681B68191D7A6811601B68BB67AC
:101850007A6FB96F5023F8183B6F0193FB6E0093BA
:1018600013000A22FFF756FE64E07B681B68191D0F
:101870007A6811601B68BB67B96F7A6F5023F818DC
:101880003B6F0193FB6E009313000A22FFF78EFD5E
:1018900050E07B681B68191D7A6811601B68BB6784
:1018A000B96F7A6F5023F8183B6F0193FB6E00936A
:1018B00013001022FFF77AFD3CE07B681B68191DBE
:1018C0007A6811601B68BB667F217B18BA6E12783C
:1018D0001A70BB6E0133BB667B181B78002B0CD0D3
:1018E0007B181A7850243B1911001800FFF71EFDD1
:1018F0003B19DB68002BE7DA1CE0C0461AE07B6886
:101900001B68191D7A6811601B68BB67B96F50238B
:10191000F818002301930823009308231022FFF7EF
:1019200045FD07E05023FB1825211800FFF7FEFCBA
:1019300000E0C046BB680133BB6008E07F23FB18B2
:101940001A785023FB1811001800FFF7EFFC502302
:10195000FB18DB68002B00DB9BE600E0C046502252
:10196000BB18DB68002B13DDBB189B68002B07D06E
:10197000BB189A681023F918FB681800FFF70AFCD7
:1019800050217B18DA687B189B68D2187B18DA60C4
:101990005023FB18DB681800BD4621B090BDC0463F
:1019A0002C5600000EB480B585B000AF78602023BF
:1019B000FB18BB600823FA18F9697B681800FFF769
:1019C00051FE0300FB60FB681800BD4605B080BCFB
:1019D00008BC03B01847000080B584B000AFF860C1
:1019E000B960FB1D1A70BB681F2B05D90A4B0B4A47
:1019F0000B48FF2101F096FFFB1D1A78BB689B0086
:101A0000F968CB181900074B0B4312021A60C04645
:101A1000BD4604B080BDC046D84F0000CC56000083
:101A2000E44F00000000101480B582B000AF786071
:101A30000A00FB1C1A707B68FA1C12781A70C046E8
:101A4000BD4602B080BD80B584B000AF3B1D18001C
:101A50000C231A00002101F0DCFF3B1D8022120242
:101A60001A603B1D01221A723B1D1900002000F074
:101A7000BDFBC046BD4604B080BD000080B582B04D
:101A800000AF78607B680933180000F0B3FC7B6816
:101A900007331900002000F021FC7B68180000F0DB
:101AA0002FFB034B034A1A60C046BD4602B080BDFF
:101AB00000FEFF1F006CDC0280B500AF0C4B222142
:101AC0001800FFF7B1FF0B4B002212211800FFF79F
:101AD00083FF084B002213211800FFF77DFFFFF75B
:101AE000B2FF054B1800FFF7C9FFC046BD4680BDD9
:101AF00000E0074000900440C056000090B585B05B
:101B000000AFF860B9607A60BB68002B02D1012396
:101B10005B4218E0FB68012B05D0FB68022B02D06A
:101B200001235B420FE00A4B1B78002B02D10123FB
:101B30005B4208E0064B9C68054B5B687A68B968B5
:101B40001800A0477B681800BD4605B090BDC04690
:101B5000D0FFFF1F90B585B000AFF860B9607A6024
:101B6000FB68002B02D001235B420FE0094B1B787E
:101B7000002B02D101235B4208E0064BDC68054BD9
:101B80005B687A68B9681800A0477B681800BD4692
:101B900005B090BDD0FFFF1F80B500AF0B4B9B7809
:101BA000DBB21A000823134007D0084B9B78DBB246
:101BB000064A08210B43DBB29370054A88235B0178
:101BC0000021D150C046BD4680BDC04600D0074070
:101BD0000070044080B588B000AF284BFB60284AF5
:101BE000284B9A4216D00023FB610AE0254BFA6984
:101BF0009200D158224BFA699200D150FB6901330F
:101C0000FB61FB689B08FA699A42EFD31E4B1C4AA2
:101C10009A6002E01C4B1B4A9A601C4BBB611C4B38
:101C20007B611C4BBB60BA687B69D31AFB6107E020
:101C30007A69531C7B61BB69591CB96112781A70AF
:101C4000FB695A1EFA61002BF2D1134B3B61134B17
:101C50007B607A683B69D31AFB6104E03B695A1CDC
:101C60003A6100221A70FB695A1EFA61002BF5D105
:101C7000C046C046BD4608B080BDC046000000005A
:101C8000000000000000000000ED00E000FEFF1F6B
:101C9000AC590000185A00006CFEFF1F60000020C5
:101CA00080B582B000AF78600A00FB1C1A70FB1C84
:101CB0001B781F221A407B680E495918FB1C1B78A1
:101CC0005B09DBB20C48844663449B00CB181800C8
:101CD000FB1C1B78D905F8231B050B40034380210F
:101CE00049050B43012191400A001A60C046BD46D8
:101CF00002B080BD34100000FDFFFF3F80B582B010
:101D000000AF7860044B80211800FFF7C9FFC04680
:101D1000BD4602B080BDC0460070044080B582B0B0
:101D200000AF78607B681A0080235B0513430122B3
:101D30001A60C046BD4602B080BD80B582B000AF1B
:101D400078607B681A0080235B05134300221A60C9
:101D5000C046BD4602B080BD80B582B000AF78609D
:101D60000A00FB1C1A70FB1C1A787B681900982368
:101D70005B050B4392011A60C046BD4602B080BDB0
:101D800080B582B000AF0020FFF7B8FF144B1800F9
:101D9000FFF7D3FF3B1D01221A703B1D01225A7031
:101DA0003B1D0F4A1968100000F022FC3B00012285
:101DB0005A703B0000221A703B00094A1968100053
:101DC00000F0E8FB064B00211800FFF7C5FF044BAD
:101DD0001800FFF7A3FFC046BD4602B080BDC04655
:101DE0000000044080B582B000AF786039603A6886
:101DF0007B689A4203D33A687B68D31A06E03A6854
:101E00007B68D31A80225202944663441800BD4670
:101E100002B080BD80B582B000AF78600A00FB1CC4
:101E20001A707B68002B05D10B4B0C4A0C487621AD
:101E300001F078FD7B68FA1C12785A707B680022EA
:101E40001A707B6800225A607B6800229A60002327
:101E50001800BD4602B080BD48500000E0560000AA
:101E60005050000080B582B000AF78607B68002BD6
:101E700005D10E4B0E4A0F48CE2101F053FD7B6871
:101E80005B78DBB2FF2B01D101230BE000F074FB88
:101E90007B685B78DBB20133DAB27B685A7000F0A2
:101EA00055FB00231800BD4602B080BD485000001D
:101EB000F05600005050000080B582B000AF0423FF
:101EC0007B60124A7B681B01D318083300221A601A
:101ED0000AE07B6801331A010C4BD2180B497B686E
:101EE0001B01CB1808331A607B685A1E7A60002BDE
:101EF000EFD1074B054A1A60064B064A9A60054B1C
:101F0000044ADA60C046BD4602B080BDE0FFFF1F54
:101F1000300000203400002080B584B000AF78602D
:101F200000F016F80300FB6000F012F80300BB603D
:101F3000BA68FB6811001800FFF754FF02007B68C5
:101F40009342F1D2C046C046BD4604B080BD0000F9
:101F500080B500AF034B180000F06AFB03001800C7
:101F6000BD4680BD0000044080B500AFFFF7A4FF70
:101F7000FFF706FF00231800BD4680BD80B582B084
:101F800000AF78600A00FB1C1A707B6801331A00EE
:101F900080235B0513431A00FB1C1B781370C0469B
:101FA000BD4602B080BD000080B582B000AF786051
:101FB0000A00FB1C1A707B6818331A00044B134389
:101FC0001A00FB1C1B781370C046BD4602B080BDD2
:101FD0000000101080B582B000AF78600A00FB1CD2
:101FE0001A70FB1C19787B681A0084235B05134365
:101FF0001A000B1CDB18DBB21370C046BD4602B0E2
:1020000080BD80B582B000AF78600A00FB1C1A70FA
:102010007B681A0080235B0513431A00FB1C1B78A6
:102020001370C046BD4602B080BD80B582B000AF1F
:1020300078600A00FB1C1A70FB1C1B787A68183247
:1020400011009C2252050A43DB01DBB21370C0462B
:10205000BD4602B080BD80B582B000AF78600A0096
:10206000FB1C1A707B6801331A0088235B0513433D
:102070001A00FB1C1B789B00DBB21370C046BD46E8
:1020800002B080BD80B582B000AF78607B68063357
:102090001A0084235B0513431B78DBB25A1E93415D
:1020A000DBB21800BD4602B080BD80B582B000AF83
:1020B00078600A00FB1C1A70FB1C1B787A68110000
:1020C0009C2252050A43DB01DBB21370C046BD46B9
:1020D00002B080BD80B582B000AF78600A00FB1C02
:1020E0001A70FB1C1B787A681100942252050A436F
:1020F0005B01DBB21370C046BD4602B080BD00007C
:1021000090B585B000AF78600F23FB1800221A70DD
:102110007B681B78042B06D9304B314A1221FF31E2
:10212000304801F0FFFB7B681B78042B08D01DDCD6
:10213000022B02DC002B03DC18E0032B0DD015E092
:102140007B68D9787B681B790F22BC1826481A0057
:1021500001F086F90300237011E00F23FC18224BD5
:10216000180001F0D7F90300237008E00F23FC18D2
:102170001D4B180001F056F903002370C0460F23D1
:10218000FB181B78002B22D17B689B79164A19001B
:102190001000FFF74AFF7B685B78134A19001000B4
:1021A000FFF718FF7B689B780F4A19001000FFF7B4
:1021B00028FF7B68DB780C4A19001000FFF7DEFE71
:1021C0007B685B79084A19001000FFF7EDFE0F23CA
:1021D000FB181B781800BD4605B090BD38510000B3
:1021E00000570000D85000000040064080B584B081
:1021F00000AF786039607B68002B05D0304B314AE6
:102200003149324801F08EFB0023FB603B681B7AAA
:10221000012B28D13B681B79002B01D0082200E05C
:1022200000223B685B79002B01D0042300E00023EF
:102230001A433B689B79002B01D0022300E0002366
:102240001A433B68DB79002B01D0012300E0002317
:102250001343FB601E4B7A689200D358FA68110052
:10226000180001F08FF93B681B7A1A4A1900100018
:10227000FFF7F1FE3B6809331A007B681100180074
:1022800000F02CF83B681B7A012B0FD13B685B7A7E
:10229000002B0BD0C0460F4B1800FFF7F3FE0300D6
:1022A0001A0001235340DBB2002BF4D13B681A68BB
:1022B000094B1A6000231800BD4604B080BDC0461B
:1022C000685100001C57000056030000D850000061
:1022D00030570000004006404C00002080B582B01E
:1022E00000AF786039600C4B7A689200D2583B6836
:1022F0001B7819001000FFF7D8FE074B7A68920090
:10230000D2583B685B7819001000FFF7E3FEC04627
:10231000BD4602B080BDC0463057000080B582B0D7
:1023200000AF78600A00FB1C1A70FB1C1B781F2290
:102330001A407B680E495918FB1C1B785B09DBB2FD
:102340000C48844663449B00CB181800FB1C1B7888
:10235000D905F8231B050B400343802149050B4396
:10236000012191400A001A60C046BD4602B080BDFE
:1023700034100000FDFFFF3F80B582B000AF7860F1
:1023800039607B68054A944663441A00044B134342
:102390001B68DBB21800BD4602B080BD041000000F
:1023A0000000081D80B582B000AF78600A00FB1CF9
:1023B0001A70FB1C1A787B681900044B0B439204BB
:1023C0001A60C046BD4602B080BDC0460000081974
:1023D00080B582B000AF78607B681A009C235B05F3
:1023E00013431B78DBB25A1E9341DBB21800BD4683
:1023F00002B080BD80B584B002AF78607B68597848
:102400007B689B78084800930023002201F0A6F91E
:102410007B681B78044A19001000FFF7C3FFC04611
:10242000BD4602B080BDC0460070044080B500AF1C
:10243000064B1B681800FFF7CBFF031E02D0044BAE
:102440001B6800E000231800BD4680BD3057000027
:102450004C000020B0B584B000AF78600B257C192B
:102460007B68144A19001000FFF786FF03002370F1
:102470007B191B78032B0DD013DC012B02D0022B10
:1024800003D00EE00C4BFB600EE0FFF7CFFF030024
:10249000FB6009E0094B180000F000FF0300FB603F
:1024A00002E00023FB60C046FB681800BD4604B094
:1024B000B0BDC04600700440006CDC020040064025
:1024C00080B582B000AF78607B68012B06D90A4BDB
:1024D0000A4AD62149000A4801F024FA094A7B68D1
:1024E000D3181B78084A19001000FFF717FFC046E1
:1024F000BD4602B080BDC0460852000038570000FB
:10250000B8510000345700000070044080B582B01C
:1025100000AF78607B68002B06D0084B084A9B21EF
:102520008900084801F0FEF99422074B11001800B9
:10253000FFF7F4FEC046BD4602B080BDEC5200007D
:1025400054570000B85100000070044080B500AF3F
:10255000084B1B68002B0BD0064B1B685A1E054B03
:102560001A60044B1B68002B01D162B600E0C04624
:10257000BD4680BD4400002080B500AF72B6C046A5
:10258000034B1B685A1C024B1A60C046BD4680BDF7
:102590004400002080B584B000AF78603B00196033
:1025A0007B681B68FB60FB68BE229343FB603B00BB
:1025B0001B785B0002221A403B005B789B000421E1
:1025C0000B401A433B009B78DB0008210B401A4369
:1025D0003B00DB781B0130210B401343FA681343A7
:1025E000FB607B68FA681A60C046BD4604B080BDD7
:1025F00080B584B000AF78603B0019603B005B7829
:102600001A0003231A403B001B789B0004210B4057
:102610001A433B009B78DB0078210B401343FB609F
:102620007B68FA685A60C046BD4604B080BD0000B1
:1026300080B582B000AF78607B680C331A00074B1E
:10264000134300221A607B680C331A00034B1343B8
:102650001B681800BD4602B080BDC046000078105F
:1026600080B582B000AF78607B680C4A1A607B68E6
:102670000B4A5A607B6800229A60C0467B68083328
:102680001A00CC235B0513431B68002BF6D17B6833
:1026900000221A61C046BD4602B080BD0400000F92
:1026A00000C01FC080B58AB000AFF860B9607A6022
:1026B0000423FB617B68FA6953431900B868FDF78E
:1026C00029FF03001A0026217B181A800A00BB1874
:1026D0001B88002B02D1BB1801221A802623FB186D
:1026E0001B88FA6953431900B868FDF713FF03000C
:1026F0003B613A697B689A4204D93A697B68D31A8C
:102700007B6103E07A683B69D31A7B612223FB1863
:1027100005221A8045E02223FB181B887A68534360
:102720001900B868FDF7F6FE03001A0024217B1893
:102730001A800A00BB181B88002B02D1BB1801228B
:102740001A802223FB181B882422BA1812885343AC
:102750001900B868FDF7DEFE03003B613A697B684B
:102760009A4204D93A697B68D31ABB6103E07A685C
:102770003B69D31ABB61BA697B699A420BD8BB69C2
:102780007B612223FB181B88FB612623FB18242274
:10279000BA1812881A8022217B181A887B180132F5
:1027A0001A802223FB181B88202BB4D97B68642154
:1027B0001800FDF7AFFE03001A0013005B009B1822
:1027C0007A699A4221D2FB69032B0AD9FB69072B4C
:1027D00007D8FB681A00C4235B05134380229202CA
:1027E0001A60FB695A1EFB681900E1235B050B4365
:1027F00012061A60FB681A0083235B051343262226
:10280000BA1812881A60002300E002231800BD469F
:102810000AB080BD80B582B000AF78600A00FB1CB2
:102820001A70FB1C1B78022B08D17B681A00F4235A
:102830005B051343802292051A6010E0FB1C1A7896
:102840007B680833190090235B050B4312011A6063
:102850007B681A00F4235B05134300221A60C0460C
:10286000BD4602B080BD80B582B000AF78600A007E
:10287000FB1C1A70FB1C1B785B08DBB21A007B6820
:102880000833190084235B050B4352001A60FB1CBC
:102890001A787B680833190080235B050B430121FC
:1028A0000A401A60C046BD4602B080BD80B586B001
:1028B00000AFF860B960FB1D1A70BB681B0C7B6130
:1028C0000122BB689A4013003B617B69042B00D94D
:1028D00076E07B699A003D4BD3181B689F46FB1D31
:1028E0001B78002B07D0FB681A0080231B051343BD
:1028F0003A691A6065E0FB681A008023DB04134321
:102900003A69D2431A605CE0FB1D1B78002B08D0AB
:10291000FB6804331A0080231B0513433A691A60CD
:102920004FE0FB6804331A008023DB0413433A6949
:10293000D2431A6045E0FB1D1B78002B08D0FB68D2
:1029400008331A0080231B0513433A691A6038E0E4
:10295000FB6808331A008023DB0413433A69D2432F
:102960001A602EE0FB1D1B78002B08D0FB680C338F
:102970001A0080231B0513433A691A6021E0FB68A3
:102980000C331A008023DB0413433A69D2431A60E4
:1029900017E0FB1D1B78002B08D0FB6810331A00D2
:1029A00080231B0513433A691A600AE0FB68103361
:1029B0001A008023DB0413433A69D2431A6000E013
:1029C000C046C046BD4606B080BDC0467057000038
:1029D00080B584B000AF786039603B681B0CBB6089
:1029E0000F23FB1800221A70BB68042B46D8BB6863
:1029F0009A00264BD3181B689F467B681A683B6871
:102A0000DA40130001221A400F23FB18511E8A419D
:102A10001A7034E07B685A683B68DA401300012280
:102A20001A400F23FB18511E8A411A7027E07B6859
:102A30009A683B68DA40130001221A400F23FB1802
:102A4000511E8A411A701AE07B68DA683B68DA40E6
:102A5000130001221A400F23FB18511E8A411A70DD
:102A60000DE07B681A693B68DA40130001221A40C6
:102A70000F23FB18511E8A411A7000E0C0460F2335
:102A8000FB181B781800BD4604B080BD84570000B9
:102A900080B584B000AF786039600F23FB18002246
:102AA0001A703B682A4A93420ED83B68294A9342DF
:102AB00042D33B68284A94466344102B3CD89A0082
:102AC000264BD3181B689F463B68254A94466344AF
:102AD000012B31D80F23FB1804221A7031E07B68D8
:102AE000802252035A602CE07B68802212035A60D5
:102AF00027E07B688022D2025A6022E07B68802235
:102B000092025A601DE07B68802252025A6018E0EF
:102B10007B68802212065A6013E07B688022D2050F
:102B20005A600EE07B68802212025A6009E07B68DE
:102B30008022D2015A6004E00F23FB1804221A708D
:102B4000C0460F23FB181B781800BD4604B080BD9B
:102B50001E0001000E000100F2FFFEFF985700006A
:102B6000F2FFFCFF80B582B000AF0200FB1D1A70BF
:102B7000FB1D1B781A001F231A40044B01219140B2
:102B80000A001A60C046BD4602B080BD00E100E008
:102B900080B582B000AF78600A00FB1C1A70FB1C85
:102BA0001A787B6808331900CC235B050B43D204E9
:102BB0001A60C046BD4602B080BD80B582B000AF8D
:102BC00078600A00FB1C1A70FB1C1A787B680833BB
:102BD0001900C8235B050B4392041A60C046BD462A
:102BE00002B080BD80B582B000AF78600A00FB1CE7
:102BF0001A70FB1C1A787B681900B4235B050B4321
:102C000052031A60C046BD4602B080BD80B582B096
:102C100000AF78600A00FB1C1A70FB1C1A787B68F6
:102C2000DA60C046BD4602B080BD80B582B000AF5C
:102C3000786039607B68DB68DAB23B681A70C0463E
:102C4000BD4602B080BD000080B584B000AFF86022
:102C5000B960FB1D1A70FB1D1A78FB6805498C468C
:102C600063441900044B0B4392061A60C046BD46EC
:102C700004B080BD041000000000081D80B582B0C3
:102C800000AF78600A00FB1C1A70FB1C1A787B6886
:102C900003481900FFF7D8FFC046BD4602B080BD0B
:102CA0000070044080B582B000AF0200FB1D1A70B6
:102CB000FB1D1B787F2B05D90D4B0E4A0E485D215D
:102CC00000F030FEFB1D1B785BB21F2B05DD0B4BAC
:102CD000084A09485E2100F025FEFB1D1B785BB207
:102CE0001800FFF73FFFC046BD4602B080BDC0469A
:102CF00064530000EC57000074530000B853000008
:102D000080B586B000AFF860B9607A60BB68002B10
:102D100002D07B68002B05D13E4B3F4A3F485421EF
:102D200000F000FEFB68002B05D03D4B3A4A3B48C3
:102D3000552100F0F7FD3B4BFA689200D3587B61B8
:102D4000394BFA689200D358002B01D00D235DE077
:102D5000BB6840220021180000F05BFE324BFA688D
:102D60009200B968D1507B681A78FB68110018008E
:102D7000FFF784FFFB681800FFF7C8FB7B691800AA
:102D8000FFF76EFCBB68183300211800FFF742F80C
:102D9000BB68243300211800FFF73CF8FB681800DB
:102DA000FFF758FB03003B617B685A6839697B6910
:102DB0001800FFF777FC7B689A7A7B69110018008E
:102DC000FFF728FD7B681A7A7B6911001800FFF76E
:102DD0004AFD7B685A7A7B6911001800FFF702FFF1
:102DE000BB6801221A707B6901211800FFF7D0FE31
:102DF0007B6901211800FFF7E0FE0C4AFB68D3183D
:102E00001B785BB21800FFF74DFF00231800BD468A
:102E100006B080BDE4530000DC57000008540000F9
:102E2000505400008C5800004800002004FEFF1F92
:102E3000B0B586B000AFF860B9607A60BB68002BAF
:102E400006D1164B164A6421FF31164800F06AFD80
:102E5000FB68002B06D0144B114AB22149001148DF
:102E600000F060FD17217B1800221A700F4BFA68E2
:102E70009200D3583B613B6900229A750D007C1883
:102E80007A68B968FB68180000F002F90300237043
:102E90007B191B781800BD4606B0B0BD7454000005
:102EA0000058000008540000505400004800002062
:102EB00080B586B000AF786039607B68002B06D0A3
:102EC000134B144A8021FF31134800F02BFD134BA4
:102ED0007A689200D3583B611723FB1800221A70BE
:102EE0003B69DB68FB603B68002B02D03B68FA68FB
:102EF0001A60FB68002B03D01723FB1808221A70F6
:102F00001723FB181B781800BD4606B080BDC046CD
:102F100050540000145800000854000048000020DD
:102F200080B586B000AF7860564B7A689200D3586F
:102F30003B61554B7A689200D358FB603B691B7D1F
:102F4000DBB201225340DBB2002B08D03B695B7D32
:102F5000DBB201225340DBB2002B00D08EE0FB68D5
:102F600008331A00D4235B0513431B68002B2CD0B5
:102F7000FB6804331A00D4235B0513431B68002B42
:102F800023D03B699A68FB6811001800FFF74DFEDB
:102F90003B691B6B002B06D03B691B6B39697A6858
:102FA0001000984711E03B699B685A1C3B699A6086
:102FB0003B691B695A1E3B691A613B691B69002BFF
:102FC00003D17B68180000F0E7F8FB6808331A00AB
:102FD000DC235B0513431B68002B40D0FB680433E4
:102FE0001A00DC235B0513431B68002B37D03B69B9
:102FF000DB68002B33D01723FB183A6912781A705C
:1030000025E03B695B681A78FB6811001800FFF740
:10301000FDFD3B699B6B002B06D03B699B6B3969BF
:103020007A681000984709E03B695B685A1C3B6965
:103030005A603B69DB685A1E3B69DA603B69DB68B2
:10304000002B04D17B68180000F06AF807E0172213
:10305000BB181B78BA18591E1170002BD1D10B4A1E
:10306000FB6811001800FFF7B3FC031E07D0074AE6
:10307000FB6811001800FFF70BFD00E0C046BD46DD
:1030800006B080BD480000208C58000013000100ED
:1030900080B586B000AFF860B9607A60FB68002B3D
:1030A00006D01A4B1A4AAD2189001A4800F03AFCA2
:1030B000194BFA689200D3587B61184BFA6892005A
:1030C000D3583B613B691B7DDBB2002B01D0082349
:1030D00017E07B68002B01D10E2312E03B69BA6830
:1030E0005A603B697A68DA603B6901221A757B692C
:1030F00008331A00DC235B051343802212041A6094
:1031000000231800BD4606B080BDC04650540000E4
:1031100034580000085400008C580000480000207B
:1031200080B584B000AF78607B68002B06D0154B6B
:10313000154AB7218900154800F0F4FB144B7A6852
:103140009200D358FB60134B7A689200D358BB604F
:10315000FB6808331A00DC235B05134300221A6066
:10316000BB689B7DDBB2002B04D0BB681833180012
:10317000FEF778FEBB6800221A75C046BD4604B053
:1031800080BDC04650540000505800000854000054
:103190008C5800004800002080B584B000AF7860F3
:1031A0007B68002B05D0174B174A1849184800F0C8
:1031B000B9FB184B7A689200D358FB60164B7A68BB
:1031C0009200D358BB60BB6808331A00D4235B0558
:1031D000134300221A601149BB6800221800FFF750
:1031E00065FBFB68DB7DDBB2002B04D0FB6824337E
:1031F0001800FEF737FEFB6800225A75C046BD4630
:1032000004B080BD505400006C580000230300003F
:1032100008540000480000208C5800001B000200E9
:1032200080B582B000AF78607B6806331A00044B2B
:1032300013431B78DBB21800BD4602B080BDC04608
:103240000000081180B582B000AF78607B681A007A
:1032500084235B0513431B78DBB2002B06D17B680C
:103260001800FFF7DDFF0300012B0DD17B68013350
:103270001A0080235B0513431B78DBB2012B01D1BD
:10328000044B02E0044B00E000231800BD4602B0EE
:1032900080BDC04600127A0080841E00B0B584B0A4
:1032A00000AF78607B6808331A00104B13431A0094
:1032B0000F243B1912781A707B6818331A000C4BD4
:1032C00013431A000E257B1912781A707B681800B8
:1032D000FFF7B8FF01003B191A787B191B78D31848
:1032E000D9400B001800BD4604B0B0BD00009010DE
:1032F0000000101080B582B000AF78600A00FB1C9F
:103300001A70FB1C19787B681A0084235B05134331
:103310001A000B1CDB18DBB21370C046BD4602B0AE
:1033200080BD80B582B000AF78600A00FB1C1A70C7
:10333000FB1C1B787A68183211009C2252050A4344
:10334000DB01DBB21370C046BD4602B080BD000099
:1033500080B582B000AF78607B6806331A00044BFA
:1033600013431B78DBB21800BD4602B080BDC046D7
:103370000000081180B582B000AF78607B6806332A
:103380001A0084235B0513431B78DBB25A1E93415A
:10339000DBB21800BD4602B080BDB0B584B000AF4E
:1033A00078600F23FB1806221A700E257C197B68A3
:1033B0001800FFF7CDFF030023707B191B78022B49
:1033C0001ED022DC002B02D0012B05D01DE00F23E4
:1033D000FB1800221A701DE07B6801331A0080235D
:1033E0005B0513431B78DBB2002B04D10F23FB18C2
:1033F00002221A700EE00F23FB1801221A7009E056
:103400000F23FB1803221A7004E00F23FB18062277
:103410001A70C0460F23FB181B781800BD4604B075
:10342000B0BD000080B582B000AF78607B6801213C
:103430001800FFF776FF7B681A00084B1343002241
:103440001A70C0467B681800FFF782FF031EF9D18F
:1034500000231800BD4602B080BDC046000008131E
:10346000B0B584B000AF786008001100FB1C021CEE
:103470001A70BB1C0A1C1A700F257C197B68180077
:10348000FFF78BFF030023707B191B78012B03D1FF
:10349000FB1C1B78002B08D00F23FB181B78022B7A
:1034A00007D1FB1C1B78012B03D17B681800FFF7A9
:1034B000B9FF7B6801331A0080235B0513431A00B0
:1034C000FB1C1B7813707B6801211800FFF712FFAB
:1034D0007B6808331A000D4B13431A00BB1C1B7882
:1034E000DB18DBB213707B681A00094B13434022D0
:1034F0001A70C0467B681800FFF72AFF0300012BF3
:10350000F8D100231800BD4604B0B0BD00009010F3
:103510000000081380B582B000AF7860174B1B68BD
:10352000002B01D1012324E07B681A00144B1343C4
:1035300080221A707B6801331A0088235B051343CD
:103540001B78DBB2012B0BD1C0467B681800FFF75C
:1035500011FF03001A0001235340DBB2002BF4D10A
:10356000C0467B681800FFF7F3FE0300022BF8D17A
:1035700000231800BD4602B080BDC0464C000020AC
:103580000000081380B582B000AF786039607B68B6
:103590001B78DBB20F229343DAB23B68DBB21343F2
:1035A000DAB27B681A70C046BD4602B080BD00002A
:1035B00080B582B000AF0200FB1D1A70FB1D1B78A6
:1035C0001A001F231A40044B012191400A001A607F
:1035D000C046BD4602B080BD00E100E080B582B0CB
:1035E00000AF0200FB1D1A70FB1D1B781A001F2381
:1035F0001340054901229A40C0235B00CA50C046CF
:10360000BD4602B080BDC04600E100E080B582B09A
:1036100000AF0200FB1D1A70FB1D1B787F2B05D924
:103620000D4B0E4A0E485D2100F07CF9FB1D1B7806
:103630005BB21F2B05DD0B4B084A09485E2100F0E9
:1036400071F9FB1D1B785BB21800FFF7B1FFC04694
:10365000BD4602B080BDC0468454000090580000B2
:1036600094540000D854000080B582B000AF786058
:103670000A00FB1C1A70FB1C1B781F221A407B6877
:103680000E495918FB1C1B785B09DBB20C488446B9
:1036900063449B00CB181800FB1C1B78D905F8234A
:1036A0001B050B400343802149050B430121914039
:1036B0000A001A60C046BD4602B080BD341000004A
:1036C000FDFFFF3F80B582B000AF7860044BBD21A5
:1036D0001800FFF7C9FFC046BD4602B080BDC04616
:1036E0000070044080B584B000AF7860184B7A68F1
:1036F0009200D358FB600020FFF7E4FFFB6818003E
:1037000000F0DDF8134A7B68D3181B785BB2180011
:10371000FFF764FF104A7B68D3181B785BB2180070
:10372000FFF75CFF0B4A7B68D3181B785BB218006D
:10373000FFF76CFF084A7B68D3181B785BB2180050
:10374000FFF764FF00231800BD4604B080BDC046EB
:10375000A4580000A8580000AC58000090B585B0EF
:1037600000AF78600C0010001900FB1C221C1A70BE
:10377000BB1C021C1A707B1C0A1C1A700023FB6005
:10378000FB1C1B781B07FA681343FB602023FB1804
:103790001B781A04E023DB021340FA681343FB6032
:1037A0007B680349FA685A50C046BD4605B090BDD3
:1037B0004410000080B582B000AF786039607B684B
:1037C0005B681B0C1A047B685A607B683A681A6055
:1037D000C046BD4602B080BD80B582B000AF786003
:1037E0007B6810331A0080235B05134301221A60A3
:1037F000C046BD4602B080BD80B582B000AF7860E3
:103800007B6810331A0080235B05134300221A6083
:10381000C046BD4602B080BD80B582B000AF7860C2
:103820000A00FB1C1A70FB1C1A787B681C331900F9
:1038300090235B050B4312011A60C046BD4602B0DF
:1038400080BD80B582B000AF78600A00FB1C1A70A2
:10385000FB1C1A787B681C33190088235B050B431B
:1038600092001A60C046BD4602B080BD80B582B0ED
:1038700000AF78600A00FB1C1A70FB1C1A787B688A
:103880001C33190084235B050B4352001A60C046A9
:10389000BD4602B080BD80B582B000AF78600A003E
:1038A000FB1C1A707B681C331A0080235B051343D2
:1038B000FA1C12781A60C046BD4602B080BD80B5C1
:1038C00082B000AF78607B6814331A0080235B05F8
:1038D00013431B68002B0CD07B681800FFF77CFF9C
:1038E0007B681800FFF788FF7B6801211800FFF74D
:1038F00061FF7B6800211800FFF78EFF7B680021C5
:103900001800FFF79EFF7B6800211800FFF7AEFF4D
:103910007B6800211800FFF7BEFFC046BD4602B01D
:1039200080BD000030B514001A00094B05001B686B
:1039300085B0D868074B002C01D1074B1C000193C0
:1039400000912B000549029400F026F800F0DEFCFF
:1039500008FEFF1FAD580000E8580000BA580000EC
:10396000014B18687047C04608FEFF1F084B10B592
:103970000400002B02D0002100E000BF054B1868B6
:10398000836A002B00D09847200001F059F8C04608
:1039900000000000EC5800000EB403B5010003ABBA
:1039A000044804CB0068019300F00CF902B008BC95
:1039B00003B0184708FEFF1F70B500260C4D0D4CD4
:1039C000641BA410A64209D1002601F0DBFF0A4DBA
:1039D0000A4C641BA410A64205D170BDB300EB587D
:1039E00098470136EEE7B300EB5898470136F2E707
:1039F000A4590000A4590000A4590000A8590000CF
:103A0000002310B59A4200D110BDCC5CC4540133E0
:103A1000F8E703008218934200D170471970013310
:103A2000F9E7000070B50500002910D00C1F2368CD
:103A3000002B00DAE418280000F0BAFE1D4A1368D3
:103A4000002B05D163601460280000F0B9FE70BD42
:103A5000A34208D9216860188342F3D118685B68D3
:103A600041182160EEE71A005B68002B01D0A342E9
:103A7000F9D911685018A0420BD1206809185018C4
:103A800011608342E0D118685B684118116053608F
:103A9000DAE7A04202D90C232B60D5E72168601831
:103AA000834203D118685B684118216063605460E9
:103AB000CAE7C04650000020F8B50323CD1C9D4343
:103AC000083506000C2D1FD20C25A9421ED8300047
:103AD00000F06EFE25490A681400002C1AD1244F0C
:103AE0003B68002B04D12100300000F027FB386038
:103AF0002900300000F022FB431C2BD10C233000A6
:103B0000336000F05DFE03E0002DDEDA0C2333604D
:103B10000020F8BD23685B1B19D40B2B03D923604D
:103B2000E418256003E06368A2420ED10B60300008
:103B300000F046FE200007220B30231D9043C21ADE
:103B40009842E6D01B1AA350E3E75360EFE7220048
:103B50006468C2E70323C41C9C43A042E1D0211A3D
:103B6000300000F0EBFA431CDBD1C7E75000002027
:103B700054000020936810B5013B9360002B04DAD9
:103B80009469A34207DB0A2905D01368581C10600A
:103B90001970080010BD00F0EBFA0100F9E7F8B564
:103BA00006000F001400D518AC4201D1002007E038
:103BB00021783A003000FFF7DDFF0134431CF3D1D8
:103BC000F8BD0000F0B5A1B006000C001F00039284
:103BD000002804D08369002B01D100F0CDFC8E4B6E
:103BE0009C421CD17468636EDB0705D4A3899B05D6
:103BF00002D4A06D00F061FDA3891B0702D52369E3
:103C0000002B1DD12100300000F008FB002817D048
:103C1000636EDB070DD50120404221B0F0BD7F4B24
:103C20009C4201D1B468DEE77D4B9C42DBD1F46855
:103C3000D9E7A3899B05EED4A06D00F03FFDEAE72C
:103C4000002308AD6B6120336B761033AB7607979A
:103C5000039F3B78002B01D0252B4ED1039BFB1AF1
:103C60000593039B9F420DD0059B21003000039AD2
:103C7000FFF795FF431C00D1B5E06A69059B9446A8
:103C800063446B613B78002B00D1ACE001227B1CCC
:103C90000393002352426A6004A9543252182B60E5
:103CA000EB60AB601370AB65039B052219785D4830
:103CB00000F072FD039B5F1C002820D12A68D30608
:103CC00004D5532304A95B1820211970130704D5C8
:103CD000532304A95B182B211970039B1B782A2BF3
:103CE00016D00021EB68039F3A78781C303A84465E
:103CF000092A4FD9002911D117E00137A9E7494B0B
:103D00002A68C01A0123834013432B600397CBE733
:103D1000079B191D1B680791002B01DB0B9304E027
:103D20005B42EB60022313432B603B782E2B0AD1BE
:103D30007B782A2B37D1079B02371A1D1B68079205
:103D4000002B2DDB099303223978374800F024FD3E
:103D5000002807D0344B2A68C01A402383401343FD
:103D600001372B6039787B1C062230480393297673
:103D700000F012FD002845D02D4B002B27D1072243
:103D8000079B07339343083307936B69049A9B1887
:103D90006B615DE70A214B4367469B180939A3E72E
:103DA00001235B42CEE700231A0001376B603978AC
:103DB000781C30398446092903D9002BC3D00992D5
:103DC000C1E70A235A4367465218093BEFE707AB9E
:103DD0000093220029003000164B00E000BF049041
:103DE000049B0133D1D1636EDB0705D4A3899B0506
:103DF00002D4A06D00F062FCA3895B0600D50AE73F
:103E00000D980AE707AB0093220029003000094B08
:103E100000F082F8E3E7C04644590000645900000E
:103E200024590000F0580000F6580000FA5800002D
:103E3000000000009F3B0000F7B5150001938A6861
:103E40000B690C000090934200DA130022002B60F3
:103E500043321278002A01D001332B6023689B067D
:103E600002D52B6802332B602268062317001F40FF
:103E70001A4227D0230043331B785A1E93412268ED
:103E8000920630D4220001990098089E4332B04730
:103E9000431C25D0062320682A68E16800250340DA
:103EA000042B03D18D1AEB43DB171D40A368226955
:103EB000934201DD9B1AED180027BD4220D100205E
:103EC00010E00137E3682A689B1ABB42D2DD22006A
:103ED000012301990098089E1932B047431CF0D184
:103EE00001204042FEBD3020E1184331087021001E
:103EF0005A1C45310978A218433202331170C1E7C8
:103F00002200012301990098089E1A32B047431CF1
:103F1000E6D00137D1E70000F0B58BB006920A0079
:103F200043320793059004920A7E0C00109B782A76
:103F300007D8622A09D8002A00D1C1E0582A00D146
:103F40008CE026004236327022E0100063381528DB
:103F5000F7D8FCF7D5FA16001F00F6FFF6FFF6FFBC
:103F6000F6FF1F00F6FFF6FFF6FFF6FFA80036008B
:103F70009A00F6FFF6FFB900F6FF3600F6FFF6FFEF
:103F80009E0026001A684236111D196013683370AE
:103F90000123A7E0086819680A1D05060BD50D68FE
:103FA0001A60002D03DA2D23049A6D421370614BC1
:103FB0000A2703931BE00D681A604106F1D52DB264
:103FC000EFE70D681968081D18602E0601D50D6809
:103FD00003E06D06FBD50D68ADB2564B0827039381
:103FE0006F2A00D002372300002243331A7063681F
:103FF000A360002B03DB0422216891432160002D84
:1040000002D1049E002B0CD0049E28003900FCF73E
:1040100007FB039B013E5B5C33702B0005009F4256
:10402000F3D9082F09D12368DB0706D56368226915
:10403000934202DC3023013E3370049B9B1B2361BF
:10404000079B210000930598069B09AAFFF7F4FE41
:10405000431C4CD1012040420BB0F0BD45310A70E9
:10406000344A03921A68216820CA1A60080616D5D5
:10407000CB0702D52023194321601027002DB2D190
:10408000202322689A432260ADE7202209680A4370
:1040900022602200782145321170274AE1E7480664
:1040A000E6D5ADB2E4E71A680D68101D49691860DD
:1040B00013682E0601D5196002E06D06FBD5198044
:1040C0000023049E2361BBE71A68111D196016685E
:1040D00000213000626800F05FFB002801D0801BE7
:1040E0006060636823610023049A1370A8E7236962
:1040F000320006990598079DA847431CAAD023685B
:104100009B0715D4099BE0689842A5DA1800A3E73D
:104110002200012306990598079E1932B047431CD7
:1041200098D00135E368099A9B1AAB42F0DCE9E7C5
:104130000025F7E70159000012590000002370B56F
:10414000064D040008002B60FCF75AFB431C03D10A
:104150002B68002B00D0236070BDC0465C0000209F
:1041600003000A7801311A700133002AF9D170472F
:10417000F8B505000E001400002804D08369002B58
:1041800001D100F0F9F9224B9C422ED16C68A36951
:10419000A360A3891B0732D52369002B2FD0236886
:1041A0002269F7B2981A6369F6B2834205DC2100EE
:1041B000280000F03FF9002827D1A3680130013B17
:1041C000A36023685A1C22601F706369834204D075
:1041D000A389DB0707D50A2E05D12100280000F0AE
:1041E00029F9002811D13000F8BD0A4B9C4201D1B9
:1041F000AC68CCE7084B9C42C9D1EC68C7E721000A
:10420000280000F00BF80028C9D001267642EAE722
:10421000445900006459000024590000374B70B520
:104220001D6806000C00002D05D0AB69002B02D1E3
:10423000280000F0A1F9324B9C420FD16C680C238E
:10424000E25E93B211072DD4D90611D409230120BF
:10425000336037331343A381404270BD294B9C42E6
:1042600001D1AC68EBE7284B9C42E8D1EC68E6E76B
:104270005B0713D5616B002908D0230044339942B2
:1042800002D03000FFF7CEFB002363632422A38912
:104290009343A38100236360236923600823A289D9
:1042A0001343A3812369002B0BD1A0218022A38972
:1042B000890092000B40934203D02100300000F0AF
:1042C00027FA0C22A35E01201A0099B20240034291
:1042D0000FD00022A26062695242A26100202269CE
:1042E0008242BAD10A06B8D540221343A3810138CD
:1042F000B3E7880700D46269A260EFE708FEFF1FFA
:10430000445900006459000024590000062010B5EB
:1043100000F088FA012000F093FB0000F7B58B89CC
:1043200005000C001A075FD44A68002A04DC0A6CF6
:10433000002A01DC0020FEBDE76A002FFAD000222F
:1043400080212E682A601A0049010A400B4234D0AD
:10435000606DA3895B0706D56368C01A636B002B89
:1043600001D0236CC01A0200216A00232800E76AEA
:10437000B847A189431C06D12B681D2B31D82C4A84
:10438000DA40D3072DD50023636023692360CB0473
:1043900005D5431C02D12B68002B00D16065616BF1
:1043A0002E600029C6D023004433994202D0280051
:1043B000FFF738FB00206063BDE701232800216A76
:1043C000B847431CC5D12B68002BC2D01D2B01D090
:1043D000162B01D12E60ADE74023A2891343A381A0
:1043E000A9E740230B43FAE70F69002FA2D00A6820
:1043F0000F60D21B019200229B0700D14A69A26084
:10440000019B002B00DC95E73A002800019B216A04
:10441000A66AB047002806DC40230120A28940425A
:104420001343A38187E7019B3F181B1A0193E7E71A
:10443000010040200B6970B505000C00002B02D173
:104440000025280070BD002804D08369002B01D10D
:1044500000F092F8144B9C421BD16C680C22A35EB6
:10446000002BEDD0626ED20704D49B0502D4A06D60
:1044700000F023F928002100FFF750FF636E0500CC
:10448000DB07DED4A3899B05DBD4A06D00F016F911
:10449000D7E7064B9C4201D1AC68DFE7044B9C4256
:1044A000DCD1EC68DAE7C0464459000064590000EA
:1044B00024590000002310B50400036043608360AA
:1044C000818143661900C2810361436183610822CF
:1044D0005C30FFF79EFA054B24626362044BA362D3
:1044E000044BE362044B236310BDC04665480000E3
:1044F0008D480000C5480000F148000010B5024991
:1045000000F0BAF810BDC0463544000070B568250B
:104510004A1E55430E0029007431FFF7CDFA041EE0
:1045200008D000212A00016046600C30A06068328B
:10453000FFF76FFA200070BD10B5024800F0BDF81B
:1045400010BDC0465900002010B5024800F0B6F872
:1045500010BDC0465900002010B5024800F0ADF86B
:1045600010BDC0465A00002010B5024800F0A6F861
:1045700010BDC0465A00002013B50400FFF7ECFF41
:10458000A369002B02D0FFF7EFFF13BDA364E36420
:104590002365134B134A1B68A2620193A34201D106
:1045A0000123A361200000F01FF86060200000F0EC
:1045B0001BF8A060200000F017F800220421E06042
:1045C0006068FFF777FF01220921A068FFF772FFFB
:1045D00002221221E068FFF76DFF0123A361D2E7F9
:1045E000EC580000FD440000F8B50700FFF7A4FFF9
:1045F0001F4B1E68B369002B02D13000FFF7BCFFD0
:104600004836B4687368013B04D53368002B22D068
:104610003668F6E70C22A55E002D1AD12000154B56
:104620005830E360656600F047F8FFF78DFF200023
:10463000082229002560A560656025616561A56186
:104640005C30FFF7E6F96563A563A564E5642000C7
:10465000F8BD6834D7E704213800FFF757FF041E80
:104660003060D5D1FFF770FF0C233B60EFE7C04609
:10467000EC5800000100FFFFF7B50400060000271A
:10468000019148346368A5680093009B013B009347
:1046900004D52468002CF5D13800FEBDAB89012B70
:1046A00008D90E22AB5E013304D029003000019BF3
:1046B000984707436835E8E7704770477047000040
:1046C00070B50E001D000E23C95E140096B00029BF
:1046D00008DA0C22B35E00222A601B0611D4802364
:1046E000DB000FE06A4600F02FF90028F1DBF02331
:1046F00001991B021940054BC9184B4259412960C9
:10470000EDE740230020236016B070BD00E0FFFFFE
:10471000F7B502268B8905000C00334206D0230032
:1047200047332360236101236361F7BD6A4601AB10
:10473000FFF7C6FF009907002800FFF7BDF9002822
:1047400008D10C22A35E9A05EFD4032293431E43A3
:10475000A681E4E70F4BAB628023A289206013435C
:10476000A381009B20616361019B002B0DD0280079
:104770000E23E15E00F0FAF8002806D00322A38998
:1047800093431A0001231343A381A0890743A78100
:10479000CBE7C046FD440000C9B28218904201D167
:1047A0000020704703788B42FBD00130F6E7000011
:1047B00010B50248FFF781FF10BDC0465800002029
:1047C00010B50248FFF77AFF10BDC0465800002020
:1047D00070B504000D001F2904D9162303600120C1
:1047E000404270BD436C002B04D08A009B181A68AD
:1047F000002A08D1200000F031F82A000100200032
:1048000000F01AF8EDE70020012AEAD0511C03D18C
:10481000162301302360E4E7002428001C60904741
:104820002000DEE710B5034B01001868FFF7D0FF4A
:1048300010BDC04608FEFF1F002370B5064D0400E2
:10484000080011002B6000F0EBF8431C03D12B682B
:10485000002B00D0236070BD5C00002010B500F07C
:10486000CFF810BD70B50C000E25495F00F0A4F81C
:10487000002803DB636D1B18636570BDA389024AC2
:104880001340A381F9E7C046FFEFFFFFF8B51F0013
:104890008B8905000C001600DB0505D50E23C95ECB
:1048A0000022022300F074F8A389054A280013406F
:1048B000A38132000E23E15E3B0000F01FF8F8BD3B
:1048C000FFEFFFFF70B50C000E25495F00F060F8A8
:1048D000A389421C03D1054A1340A38170BD8022E5
:1048E00052011343A3816065F8E7C046FFEFFFFF65
:1048F00010B50E23C95E00F015F810BD70B50400A8
:10490000080011001A000023054D2B60FDF7F6F892
:10491000431C03D12B68002B00D0236070BDC04620
:104920005C000020002370B5064D040008002B60D9
:1049300000F056F8431C03D12B68002B00D02360F5
:1049400070BDC0465C000020002370B5064D040019
:10495000080011002B6000F04BF8431C03D12B68BA
:10496000002B00D0236070BD5C000020002370B5D8
:10497000064D040008002B6000F04AF8431C03D1E8
:104980002B68002B00D0236070BDC0465C00002067
:1049900070B50400080011001A000023054D2B60BB
:1049A00000F046F8431C03D12B68002B00D0236095
:1049B00070BDC0465C00002070B504000800110006
:1049C0001A000023054D2B60FDF7C4F8431C03D1EA
:1049D0002B68002B00D0236070BDC0465C00002017
:1049E00058220120014B40421A6070475C000020B1
:1049F00058220120014B40421A6070475C000020A1
:104A000058220120014B40421A6070475C00002090
:104A10005822024B00201A607047C0465C000020FC
:104A200058220120014B40421A6070475C00002070
:104A300058220120014B40421A6070475C00002060
:104A4000FEE7C04670696E203C20333255000000FE
:104A5000633A5C75736572735C6172796D757274BB
:104A6000695C6465736B746F705C616C6C6F6674A9
:104A700068656D5C656D626564646564766C632D04
:104A80006D61696E5C706C6174666F726D5C68619B
:104A90006C5C696E635C66736C5F706F72745F6888
:104AA000616C2E68000000000D0A3442323520434C
:104AB0006F75727365776F726B202335094352539C
:104AC00049443A206161616E73320D0A00000000B2
:104AD0000D0A0A43686F6F73652074686520666FFE
:104AE0006C6C6F77696E67206F7074696F6E730D91
:104AF0000A0000000D2D202761273A2044697370B9
:104B00006C6179204C50554152542053657474693E
:104B10006E672E0A000000000D2D202762273A2024
:104B20004D616B6520746865204C5055415254208E
:104B30005478207472616E736D6974202748656CB7
:104B40006C6F20576F726C642E270A000D2D202782
:104B500063273A204D616B6520746865204C505581
:104B6000415254205478207472616E736D697420C0
:104B700027344232353A20456D62656464656420AD
:104B800053797374656D20666F7220496E74657217
:104B90006E6574206F66205468696E67732E270AED
:104BA000000000000D2D202764273A204D616B6521
:104BB00020746865204C505541525420547820741C
:104BC00072616E736D697420616C6C2075707065B4
:104BD000722063617073206C657474657273202732
:104BE000412D5A272E0A00000D2D202765273A2037
:104BF0004D616B6520746865204C505541525420BE
:104C00005478207472616E736D697420616C6C20CD
:104C10006C6F7765722063617073206C6574746566
:104C200072732027612D7A272E0A00000D2D202770
:104C300066273A204D616B6520746865204C50559D
:104C4000415254205478207472616E736D697420DF
:104C5000616C6C206E756D6265722027302D39276E
:104C60002E0A00000D2D202767273A204D616B6525
:104C700020746865204C505541525420547820745B
:104C800072616E736D697420616C6C2073796D62F2
:104C90006F6C732E0A0000000D2D202768273A2024
:104CA0004D616B6520746865204C5055415254200D
:104CB0005478207472616E736D697420616C6C201D
:104CC000636861726163746572732E0A000000008C
:104CD0000D2D202769273A204D616B65207468658A
:104CE000204C5055415254205478207472616E7398
:104CF0006D697420696E7075742066726F6D2074B2
:104D00006865206B6579626F6172640A000000005B
:104D10000D456E7465722073656C656374696F6EA2
:104D20003E2000000D0A0A426175642072617465BC
:104D30000909093A20393630300D0A000D426974EC
:104D400020636F756E7420706572206368617209EC
:104D5000093A20382D626974730D0A000D50617292
:104D6000697479206D6F64650909093A204E6F6E88
:104D7000650D0A000D53746F70206269740909098A
:104D80003A20310D0A0000000D4C5055415254207C
:104D9000636C6F636B20736F7572636509093A20EA
:104DA0006B436C6F636B4C707561727453726349C3
:104DB000726334384D0D0A000D0A0A2B2B2B2B2B56
:104DC0004C5055415254205472616E736D69737327
:104DD000696F6E2B2B2B2B2B0D0A00000D0A5479BB
:104DE00070652063686172616374657273206672B6
:104DF0006F6D206B6579626F6172642C20746865D9
:104E000020626F6172642077696C6C2072656365E3
:104E100069766520616E64207468656E20656368DC
:104E20006F207468656D20746F207465726D696E93
:104E3000616C2073637265656E202872657365749A
:104E40002074686520626F61726420746F207374CF
:104E50006F70290D0A0000000D094C65742773203E
:104E6000747279207468617420616761696E0000F2
:104E70000D09496E76616C69642073656C656374B5
:104E8000696F6E202725632720210A00010000009A
:104E900080250000000000000D0A48656C6C6F2042
:104EA000576F726C642E0D0A000000000D0A344228
:104EB00032353A20456D62656464656420537973C8
:104EC00074656D20666F7220496E7465726E6574CC
:104ED000206F66205468696E67732E0D0A0000000B
:104EE0000D0A4142434445464748494A4B4C4D4EC2
:104EF0004F505152535455565758595A0D0A0000A5
:104F00000D0A6162636465666768696A6B6C6D6EE1
:104F10006F707172737475767778797A0D0A000004
:104F20000D0A303132333435363738390D0A000046
:104F30000D0A7E60213F402324255E262A28292D44
:104F40002B5F3D7B7D5B5D3C7C3E3B3A272C2E2FCF
:104F50005C0D0A000D0A4142434445464748494A10
:104F60004B4C4D4E4F505152535455565758595A19
:104F70000D0A0D6162636465666768696A6B6C6DD2
:104F80006E6F707172737475767778797A0D0A0D19
:104F9000303132333435363738390D0A0D7E6021E1
:104FA0003F402324255E262A28292D2B5F3D7B7D2B
:104FB0005B5D3C7C3E3B3A272C2E2F5C0D0A0000AB
:104FC0005465726D696E616C0000000052545400AB
:104FD000534547474552000070696E203C203332EC
:104FE00055000000633A5C75736572735C61727999
:104FF0006D757274695C6465736B746F705C616C01
:105000006C6F667468656D5C656D6265646465642B
:10501000766C632D6D61696E5C706C6174666F7225
:105020006D5C68616C5C696E635C66736C5F706F0D
:1050300072745F68616C2E680000000000800000E0
:1050400000000000010000007053656D00000000CA
:10505000433A5C467265657363616C655C4B5344AF
:105060004B5F312E332E305C706C6174666F726DE5
:105070005C6F73615C7372635C66736C5F6F735FAC
:105080006162737472616374696F6E5F626D2E63C7
:1050900000000000704D75746578000070457665FD
:1050A0006E740000736574466C61677300000000E5
:1050B00068616E646C6572007175657565000000ED
:1050C0004E554C4C20213D20636C6F636B436F6EDB
:1050D0006669677350747200433A5C467265657323
:1050E00063616C655C4B53444B5F312E332E305CF7
:1050F000706C6174666F726D5C73797374656D5CEE
:105100007372635C636C6F636B5C66736C5F636C20
:105110006F636B5F6D616E616765722E6300000087
:105120004E554C4C20213D2063616C6C6261636B79
:105130007350747200000000746172676574436F8D
:105140006E6669672D3E6D63676C6974655F6D6F30
:105150006465203C206B4D63676C6974654D6F64BA
:105160006553746F70000000696E7374616E6365DF
:10517000203C204F53435F494E5354414E43455FBB
:10518000434F554E54000000696E7374616E636541
:10519000203C205254435F494E5354414E43455F97
:1051A000434F554E540000004E554C4C20213D209D
:1051B000636F6E6669670000433A5C4672656573AB
:1051C00063616C655C4B53444B5F312E332E305C16
:1051D000706C6174666F726D5C73797374656D5C0D
:1051E0007372635C636C6F636B5C4D4B4C30335A12
:1051F000345C66736C5F636C6F636B5F4D4B4C30FC
:10520000335A342E63000000696E7374616E6365F7
:10521000203C2073697A656F6628706F72744761ED
:1052200074655461626C65292F73697A656F6628AD
:10523000706F7274476174655461626C655B305D58
:1052400029000000696E7374616E6365203C2073F1
:10525000697A656F66286164634761746554616249
:105260006C65292F73697A656F662861646347618D
:1052700074655461626C655B305D2900696E73749E
:10528000616E6365203C2073697A656F6628737070
:1052900069476174655461626C65292F73697A6529
:1052A0006F6628737069476174655461626C655BF1
:1052B000305D2900696E7374616E6365203C2073F4
:1052C000697A656F66286932634761746554616203
:1052D0006C65292F73697A656F6628693263476147
:1052E00074655461626C655B305D2900696E73742E
:1052F000616E6365203C2073697A656F66286C7007
:1053000075617274476174655461626C65292F73AD
:10531000697A656F66286C7075617274476174652F
:105320005461626C655B305D29000000696E7374C6
:10533000616E6365203C2073697A656F66287470BE
:105340006D476174655461626C65292F73697A6574
:105350006F662874706D476174655461626C655B3B
:10536000305D290030203C3D206972714E756D62C0
:1053700065720000633A5C667265657363616C65B3
:105380005C6B73646B5F312E332E305C706C6174B8
:10539000666F726D5C73797374656D5C696E635C66
:1053A00066736C5F696E746572727570745F6D613F
:1053B0006E616765722E68006972714E756D626507
:1053C00072203C3D2046534C5F4645415455524562
:1053D0005F494E544552525550545F4952515F4DAA
:1053E000415800006C70756172745374617465503B
:1053F0007472202626206C70756172745573657204
:10540000436F6E6669670000433A5C467265657378
:1054100063616C655C4B53444B5F312E332E305CC3
:10542000706C6174666F726D5C64726976657273BC
:105430005C7372635C6C70756172745C66736C5FD4
:105440006C70756172745F6472697665722E630048
:10545000696E7374616E6365203C204C50554152F7
:10546000545F494E5354414E43455F434F554E544C
:10547000000000007478427566660000727842751C
:105480006666000030203C3D206972714E756D6289
:1054900065720000633A5C667265657363616C6592
:1054A0005C6B73646B5F312E332E305C706C617497
:1054B000666F726D5C73797374656D5C696E635C45
:1054C00066736C5F696E746572727570745F6D611E
:1054D0006E616765722E68006972714E756D6265E6
:1054E00072203C3D2046534C5F4645415455524541
:1054F0005F494E544552525550545F4952515F4D89
:10550000415800006461746574696D6500000000B5
:10551000433A5C467265657363616C655C4B5344EA
:105520004B5F312E332E305C706C6174666F726D20
:105530005C647269766572735C7372635C727463C7
:105540005C66736C5F7274635F6472697665722EF9
:1055500063000000616C61726D54696D650000004C
:105560006461746500000000726570656174416C6F
:1055700061726D537461746500000000735F727432
:1055800063526570656174416C61726D53746174CE
:1055900065000000616C61726D526570496E7465E2
:1055A0007276616C000000000D0A0A2B2B2B2B2B4E
:1055B0004C5055415254205472616E736D6973732F
:1055C000696F6E2B2B2B2B2B0D0A00000D0A5478C4
:1055D0002077696C6C2073656E6420746865206444
:1055E00061746120696E646976696475616C6C7957
:1055F0000D0A0000240A0000760A0000B20A00002A
:10560000F40A0000380B00007C0B0000B80B00000F
:10561000FC0B0000B00C0000504F52545F48414C4E
:105620005F5365744D75784D6F6465009218000086
:10563000321900003219000032190000321900003E
:10564000321900003219000032190000321900002E
:1056500032190000321900001A1800004218000028
:10566000321900003219000032190000321900000E
:1056700032190000321900003219000032190000FE
:10568000321900003219000032190000FE18000023
:105690003219000032190000BA1800003219000057
:1056A0006A18000032190000321900009218000038
:1056B0003031323334353637383941424344454648
:1056C000000000000000010000000001504F525493
:1056D0005F48414C5F5365744D75784D6F6465004C
:1056E0004F53415F53656D6143726561746500009E
:1056F0004F53415F53656D61506F7374000000003C
:10570000434C4F434B5F5359535F5365744D63672D
:105710006C6974654D6F646500000000434C4F4335
:105720004B5F5359535F4F7363496E6974000000B8
:1057300000500640898A0000434C4F434B5F535949
:10574000535F456E61626C65506F7274436C6F633A
:105750006B000000434C4F434B5F5359535F456E02
:1057600061626C654C7075617274436C6F636B0041
:10577000DE28000008290000362900006429000006
:1057800092290000FA290000142A00002E2A0000A5
:10579000482A0000622A00002E2B0000242B000063
:1057A000062B0000FC2A0000F22A0000E82A000074
:1057B000DE2A0000D42A0000D42A0000D42A0000E7
:1057C000D42A0000102B0000382B0000382B0000DA
:1057D000382B0000382B00001A2B00004C5055418C
:1057E00052545F4452565F496E697400494E545F8B
:1057F0005359535F456E61626C6549525100000018
:105800004C50554152545F4452565F53656E644448
:10581000617461004C50554152545F4452565F4789
:1058200065745472616E736D6974537461747573C9
:10583000000000004C50554152545F4452565F5393
:105840007461727453656E64446174610000000099
:105850004C50554152545F4452565F436F6D706CCB
:1058600065746553656E6444617461004C505541C4
:1058700052545F4452565F436F6D706C657465524D
:1058800065636569766544617461000000400540A8
:10589000494E545F5359535F456E61626C6549527E
:1058A0005100000000D0034014000000152C2066B9
:1058B000756E6374696F6E3A2000617373657274FC
:1058C000696F6E2022257322206661696C65643AD7
:1058D0002066696C6520222573222C206C696E6518
:1058E000202564257325730A000000000CFEFF1FAD
:1058F000232D302B2000686C4C00656667454647B9
:10590000003031323334353637383941424344453B
:1059100046003031323334353637383961626364AA
:1059200065660000000000000000000000000000AC
:105930000000000000000000000000000000000067
:105940000000000000000000000000000000000057
:105950000000000000000000000000000000000047
:105960000000000000000000000000000000000037
:105970000000000000000000000000000000000027
:1059800000000000F8B5C046F8BC08BC9E46704751
:0C599000F8B5C046F8BC08BC9E46704745
:08599C00BCAAFF7F010000001E
:0459A40039040000C2
:0459A80011040000E6
:1059AC0000093D000C0000000CFEFF1F0000000071
:1059BC004459000064590000245900000000000004
:1059CC0000000000000000000000000000000000CB
:1059DC0000000000000000000000000000000000BB
:1059EC0000000000000000000000000000000000AB
:1059FC00000000000000000000000000000000009B
:0C5A0C000000000000000000000000008E
:04000003000004D91C
:00000001FF
