:1000000000060020D9040000E9040000E904000013
:1000100000000000000000000000000000000000E0
:10002000000000000000000000000000E9040000E3
:100030000000000000000000E9040000E9040000E6
:10004000E9040000E9040000E9040000E9040000FC
:10005000E9040000E9040000E9040000E9040000EC
:10006000E9040000E9040000E9040000E9040000DC
:10007000290B0000E9040000E9040000E904000085
:10008000E9040000E9040000E9040000E9040000BC
:10009000E9040000E9040000E9040000E9040000AC
:1000A000E9040000E9040000E9040000E90400009C
:1000B000E9040000E9040000E9040000E90400008C
:10040000FFFFFFFFFFFFFFFFFFFFFFFFFE3DFFFFBF
:1004100010B5064C2378002B07D1054B002B02D0DA
:10042000044800E000BF0123237010BD68FEFF1FD9
:100430000000000020230000044B10B5002B03D067
:100440000349044800E000BF10BDC04600000000A2
:100450006CFEFF1F20230000402292029A1A92464F
:100460007047C046174B002B00D1134B9D46FFF73A
:10047000F3FF00218B460F461348144A121A01F06D
:10048000A6FC0E4B002B00D098470D4B002B00D044
:1004900098470020002104000D000D48002802D0DC
:1004A0000C4800E000BF01F065FC2000290000F0CE
:1004B000B1F901F049FCC04600000800000000004E
:1004C000000000000006002068FEFF1F380000202A
:1004D000000000000000000072B600F0AFFE00F067
:1004E000BFFE62B6FFF7BEFF00480047E904000008
:1004F0000023C25C0133002AFBD1581E7047000064
:1005000002B4714649084900095C49008E4402BCA6
:100510007047C04603B47146490840004900095E6F
:1005200049008E4403BC7047002243088B4274D3B9
:1005300003098B425FD3030A8B4244D3030B8B42E4
:1005400028D3030C8B420DD3FF22090212BA030CED
:100550008B4202D31212090265D0030B8B4219D3CE
:1005600000E0090AC30B8B4201D3CB03C01A5241EE
:10057000830B8B4201D38B03C01A5241430B8B4236
:1005800001D34B03C01A5241030B8B4201D30B031F
:10059000C01A5241C30A8B4201D3CB02C01A524146
:1005A000830A8B4201D38B02C01A5241430A8B4209
:1005B00001D34B02C01A5241030A8B4201D30B02F2
:1005C000C01A5241CDD2C3098B4201D3CB01C01A0C
:1005D000524183098B4201D38B01C01A5241430916
:1005E0008B4201D34B01C01A524103098B4201D304
:1005F0000B01C01A5241C3088B4201D3CB00C01A71
:10060000524183088B4201D38B00C01A52414308E8
:100610008B4201D34B00C01A5241411A00D201460D
:10062000524110467047FFE701B5002000F0F0F896
:1006300002BDC0460029F7D076E7704703460B435A
:100640007FD4002243088B4274D303098B425FD3CB
:10065000030A8B4244D3030B8B4228D3030C8B42F7
:100660000DD3FF22090212BA030C8B4202D31212DD
:10067000090265D0030B8B4219D300E0090AC30BB2
:100680008B4201D3CB03C01A5241830B8B4201D35F
:100690008B03C01A5241430B8B4201D34B03C01A48
:1006A0005241030B8B4201D30B03C01A5241C30AC0
:1006B0008B4201D3CB02C01A5241830A8B4201D331
:1006C0008B02C01A5241430A8B4201D34B02C01A1B
:1006D0005241030A8B4201D30B02C01A5241CDD2C0
:1006E000C3098B4201D3CB01C01A524183098B420B
:1006F00001D38B01C01A524143098B4201D34B01F4
:10070000C01A524103098B4201D30B01C01A524156
:10071000C3088B4201D3CB00C01A524183088B42DD
:1007200001D38B00C01A524143088B4201D34B00C6
:10073000C01A5241411A00D2014652411046704738
:100740005DE0CA0F00D04942031000D3404253403D
:1007500000229C4603098B422DD3030A8B4212D3FD
:10076000FC22890112BA030A8B420CD3890192112F
:100770008B4208D3890192118B4204D389013AD06C
:10078000921100E08909C3098B4201D3CB01C01A41
:10079000524183098B4201D38B01C01A5241430954
:1007A0008B4201D34B01C01A524103098B4201D342
:1007B0000B01C01A5241C3088B4201D3CB00C01AAF
:1007C000524183088B4201D38B00C01A5241D9D2C7
:1007D00043088B4201D34B00C01A5241411A00D248
:1007E0000146634652415B10104601D34042002B44
:1007F00000D54942704763465B1000D3404201B5C3
:10080000002000F005F802BD0029F8D016E7704777
:100810007047C04670B50024A4B06B462000DC735E
:1008200000F0BCFE012000F0B9FE00F0DFFC8023E8
:100830009E4A9B0013609E4A136000F0BDFD012399
:100840002200210020000093230000F0C1FA994902
:10085000200000F09BFAC82000F0A0FD200001F06D
:1008600013FA04AA1100944B61CB61C1200014A9B2
:1008700001F052F80A349149002000F087FA200074
:1008800000F08CFD8E49002000F080FA200000F07E
:1008900085FD8C49002000F079FA200000F07EFDF3
:1008A0008949002000F072FA200000F077FD8749A6
:1008B000002000F06BFA200000F070FD8449002059
:1008C00000F064FA200000F069FD8249002000F089
:1008D0005DFA200000F062FD7F49002000F056FA2A
:1008E000200000F05BFD7D49002000F04FFA200061
:1008F00000F054FD7A49002000F048FA200000F092
:100900004DFD00F05EFAC2B20A2A00D1C4E0100028
:100910006138072800D9C4E0FFF7F2FD0428394AFE
:100920005B6C7D8E6F49002000F030FA200000F0F3
:1009300035FD6D49002000F029FA200000F02EFD61
:100940006A49002000F022FA200000F027FD6849E3
:10095000002000F01BFA200000F020FD6549002077
:1009600000F014FA200000F019FD84E7112262491A
:1009700007A801F023FA1122002007A901F030F89E
:100980000021080001F038F80828F9D073E7322276
:100990005A4907A801F012FA3222002007A901F0F3
:1009A0001FF80021080001F027F80828F9D062E7B5
:1009B0001F22534907A801F001FA1F22002007A9AE
:1009C00001F00EF80021080001F016F80828F9D00F
:1009D00051E71F224B4907A801F0F0F91F22002020
:1009E00007A900F0FDFF0021080001F005F8082824
:1009F000F9D040E70F22444907A801F0DFF90F22A0
:100A0000002007A900F0ECFF0021080000F0F4FF2F
:100A10000828F9D02FE724223C4907A801F0CEF995
:100A20002422002007A900F0DBFF0021080000F0CD
:100A3000E3FF0828F9D01EE73549002000F0A6F9A9
:100A4000642000F0ABFC3349002000F09FF96420E3
:100A500000F0A4FC232200202F4900F0C1FF002158
:100A6000080000F0C9FF0828F9D0792200202B499E
:100A700000F0B6FF0021080000F0BEFF0828F9D002
:100A800000F09FF96B46D8730F236B4401221900C5
:100A9000002000F0A5FFF3E72149002000F076F9DF
:100AA000E9E62049002000F084FBE4E604A01454A9
:100AB00008A01454001E0000F41D0000251E0000B4
:100AC000461E0000671E00009B1E0000F01E000076
:100AD000331F0000761F0000AD1F0000DF1F000065
:100AE0001C2000002F200000432000006220000096
:100AF0007820000088200000872100009821000055
:100B0000CA210000E921000008220000172200008D
:100B1000B7200000DA2000003B2200005E22000027
:100B2000542100006B21000010B5002000F072FF7E
:100B300010BD0369C268934201D880681B18013B4D
:100B4000981A7047F7B58368C46801931F1B436800
:100B500005000E001819A418974207D83A0001F0B2
:100B60002DF9019B6868E41A2200F11901F026F9B9
:100B7000EC60F7BD0023F7B506001700C5680191CA
:100B800000933369B4689D421FD2013B5B1B641B19
:100B9000BC4200D93C009C4200D91C007368220072
:100BA0005819019901F00AF9009B2D191B1900939E
:100BB000019B3F1B1B190193B368AB4200D1002579
:100BC000F560002FDDD10098FEBD1B19DDE70000A8
:100BD000022310B50F4C104A236163610F4BA261D1
:100BE000E361C823A2640E4A2362E2640023042264
:100BF000A3626362E362A3656365E36522650949F5
:100C0000E01D01F0ECF82000074901F0E8F820238E
:100C1000A37110BD84FEFF1FD722000000FFFF1F3D
:100C2000FCFEFF1FE0220000E4220000F0B5274B8D
:100C300085B01B780E0002900192002B01D1FFF7C6
:100C4000C7FF1823029A00255343204AD3185A6D30
:100C50009C6D0392944219D91B6D019D1B1B9D42F3
:100C600000D91D001827029B30005F43174B2A0054
:100C7000DF19FB6C7619191901F0A0F8019B6419B2
:100C80005B1B01933B6DA34200D10024039B019F9A
:100C90001B1B9F4200D91F00002F0CD01823029A63
:100CA00030005343094AED19D318D96C3A00091999
:100CB00001F084F8E419002D05D01823029A0348A6
:100CC0005343C0188465280005B0F0BD84FEFF1FA3
:100CD00010B50B00EFF31084012181F31088190087
:100CE000FFF7A4FF84F3108810BD0000F8B51600CC
:100CF0001822451C55434243164B0F005D199B18A3
:100D0000DC6A012C10D0022C1BD0002C1FD1280033
:100D1000FFF70FFF864205D8320039002800FFF7A1
:100D200011FF34002000F8BD2800FFF702FF340057
:100D3000864200D90400220039002800FFF702FF94
:100D4000F0E732002800FFF715FF0400EAE700246F
:100D5000E8E7C04684FEFF1FF8B50B4B04001B7884
:100D60000E001700002B01D1FFF732FFEFF31085C3
:100D7000012181F310883A0031002000FFF7B6FF0F
:100D800085F31088F8BDC04684FEFF1F70B50500CE
:100D900008000C00FFF7ACFB210002002800FFF761
:100DA000DBFF70BD13B56B46DC1D01222100002066
:100DB000FFF78EFF012801D1207816BD01204042A7
:100DC000FBE710B5FFF7EEFF0028FBDB10BD0000CE
:100DD000F7B5164C0193237805000F001600002B81
:100DE00001D1FFF7F5FE2369AB421CD9EFF3108266
:100DF000012181F31088002D0CD01823691C594360
:100E00006B43675061184E600199E3181962002125
:100E10009962596218204543089B6419E36282F382
:100E200010880020FEBD01204042FBE784FEFF1F2A
:100E3000826810B504004068531C834205D82068BE
:100E40008154A360E3680133E360A26863689A4257
:100E500009D121682069FFF77FFFA368984203D07A
:100E600001235B42E36010BD0023A360FBE70000A9
:100E7000F0B5050017000800012685B00A9C029114
:100E80000093B84219D2009A0196964200D201927C
:100E900001230B9A1A4003920B9A1A4202D1002C9A
:100EA00010D10024EB680126002B4BDB009B012BAB
:100EB0001FD9013B00937E43F8E73900FFF734FB6D
:100EC0000136DEE70B9B20269B0704D5009B1036DE
:100ED000002B00D0103E019BA342E3D2310028003A
:100EE000FFF7A6FFEB68013C002BDBDB002CF2D107
:100EF000D7E731000298FFF717FB8742DBD902984A
:100F00003100FFF797FB114B0291195C2800FFF7A6
:100F10008FFFEB68002B05DB39003000FFF704FB87
:100F2000BE4211D2039B002B0CD0002C0AD0019B97
:100F3000A34207D220212800FFF77AFFEB68013C8B
:100F4000002BF2DA05B0F0BD0600D8E7EB22000076
:100F5000F0B59FB00EAB099340230A9300230E0017
:100F6000150007900B930D900C93317801360029F2
:100F700007D10C9B0393002B00DD09E10C981FB0F7
:100F8000F0BD252900D0B3E000270822042006E0A8
:100F9000302B0DD1022300E001231F430E003378D4
:100FA000711C2D2BF8D0F3D8232B10D02B2B0CD069
:100FB00000240A213378721C18003038092808D818
:100FC0004C43303C16001C19F4E70743E6E717438F
:100FD000E4E7002103912E2B0ED116000A2032786F
:100FE000711C1300303B092B06D8039B0E004343B2
:100FF000303BD3180393F2E7042331780A0001361B
:101000009A43682A01D13178F8E7782909D86F29FD
:101010000BD8632967D017D8252969D0582900D162
:1010200095E00C9B002BA0DAA3E770390800082993
:10103000F7D8FFF76FFAA500F6FFF6FF9400F6FF6A
:101040008300F6FFF6FF8C006429EAD12B681A1D95
:101050001B682A60DA1798180493012350400593FF
:10106000092849DC039B059A0693934200D2069215
:10107000002C05D0049B002B01DB7B0700D5013C35
:1010800002231F4202D0039B002B05D001231F42E5
:1010900002D1002C36D100240C9B0593002BC0DB21
:1010A000049B002B3ADA2D215B42049309A8FFF739
:1010B000BFFE0C9B002BB4DB03233B40022B05D16E
:1010C000039B002B02D1002C2CD100240C9B0593F8
:1010D000002BA6DB0A22039B04990197009409A820
:1010E000FFF7C6FE9DE72B6819681A1D2A60C9B272
:1010F00009A8FFF79DFE94E70A21FFF79FFA059BD9
:101100000133ACE7069BA342C6D2202109A8FFF712
:101110008FFE0C9B013C002BBBDABDE77B07C8D5DB
:101120002B21C3E7069BA342D0D2302109A8FFF7A9
:101130007FFE0C9B013C002BC5DAC7E70A22296819
:1011400001970B1D2B60039B00940968C7E7296872
:1011500001970B1D2B60039B00941022F5E72B6871
:101160001A1D2A601C6821780134002900D158E733
:1011700009A8FFF75DFE0C9B0393002BF3DA50E701
:1011800029680B1D2B600023019308330093E4E7CB
:101190000B9A002A03D007980EA9FFF7DDFD0C9BE0
:1011A00003930B9B0493049A039B944663440C9310
:1011B000E4E60EB403B503AB02CB01AA0193FFF73B
:1011C000C7FE02B008BC03B018471FB508220021B3
:1011D00002A800F0FCFD80231B020193012301AC57
:1011E00021000020237200F03FF91FBD222270B5BC
:1011F00000250C4B1A700C4B1D600C4B1D60FFF74B
:10120000E4FF0B4C2000093000F07EF92800E11DBE
:1012100000F014F9200000F0D7F8064B064A1A60D7
:1012200070BDC04600E00740489014544C901454E0
:10123000FB22000000FEFF1F006CDC020823064AB0
:101240009178194202D091780B4393708823002142
:10125000024A5B01D150704700D007400070044043
:101260001249134810B5814205D00022114B9B084A
:101270009B009A420FD1104B104A996000231049ED
:101280001048521A9A420AD100210F4B0F4AD21A23
:10129000013A08D210BD84588C500432E9E7CC5C86
:1012A000C4540133EEE719700133F1E70000000088
:1012B000000000000000000000ED00E0B02300008E
:1012C0004823000000FEFF1F68FEFF1F38000020BB
:1012D000F7B501240C4B00251C606B460B4F0C4EE0
:1012E0001C705C7038003560009900F096F901AB15
:1012F0001D705C703800019900F074F99820400569
:10130000384305603460F7BD388004500000044065
:10131000000004500300081A994202D280235B02A5
:10132000C018704703004170002018705860986022
:10133000704710B5437804000120FF2B08D000F05F
:1013400049F963780133DBB2637000F037F90020AC
:1013500010BD000000220A4B9A641A0040329A63C2
:101360001A0030329A621A0020329A611A00103242
:101370009A60044A1360044B9B60DB607047C04670
:10138000CCFFFF1FC8FFFF1F1C00002010B5024844
:1013900000F050F910BDC0460000044070B50400D4
:1013A000FFF7F4FF0500FFF7F1FF01002800FFF74A
:1013B000B1FFA042F7D970BD10B5FFF7CBFFFFF723
:1013C00087FF002010BD0000037810B50400032B38
:1013D00024D01DD8013B012B1CD82279E17811487B
:1013E00000F0EEFB002812D1A3790F4ADB01DBB23B
:1013F000137063780D4A5B00DBB21370A2780C4B5C
:101400001A70E2780B4B1A7062790B4B1A7010BD90
:10141000042BE2D0034800F0BBFBE3E7014800F0F7
:1014200005FCDFE700400640184086530040865028
:10143000004006500140065018401650094B8000ED
:1014400010B5C4589C2094220B784005DB01204342
:10145000DBB203704B7852055B012243DBB21370A1
:1014600010BDC0460823000070B50B7A05000C00C3
:10147000012B14D1097962794B1E9941531E9A416F
:10148000A379C800591E8B41E179920001435B00AA
:10149000114319430E4BAA00D05800F0EDFB210078
:1014A000237A0C4A9B00DBB2137028000931FFF746
:1014B000C5FF02232289FF339A4203D1064A1378DB
:1014C000002BFCD02268054B00201A6070BDC0467E
:1014D00008230000014006510640865034000020D9
:1014E000F821084A43099B009B180905C2050A40D8
:1014F00013438022520513431F2210401E3A82409C
:101500001A6070472880044037B58378417800938B
:1015100000230400054D1A00280000F0DFFB2378AB
:1015200003489B042843036037BDC0460070044055
:1015300000000819074B82B01B68002001939C2310
:10154000019A5B0513431B78834201D0024B186854
:1015500002B0704708230000340000200B4B10B588
:101560001868C0B202280AD003280BD00138431EE5
:101570009841074B40421840064BC01810BDFFF77A
:10158000D9FFFBE7044800F0D1FAF7E704800C5DCF
:10159000009423FD006CDC020040064010B5024BB5
:1015A000185CFFF79DFF10BD0C2300008022024B4A
:1015B00052031A607047C0463880045A044A1368C0
:1015C000002B04D0013B1360002B00D162B67047A2
:1015D0002C00002072B6024A136801331360704772
:1015E0002C00002037B50191BE2102240825036894
:1015F00001AA8B43190013785B0023409478E40020
:101600002C4023435478D278A40023433024120181
:10161000224013430B43036037BD8B05CAB29200CF
:101620009B0F13437822490B114082B00B43436058
:1016300002B07047030003480C33184300230360D3
:101640000068704700007810074B02000360074BEA
:101650000832436000238360CC235B0513431A6880
:10166000002AFCD1026170470400000F00C01FC0B7
:10167000F0B50E0087B00490910030001400FEF722
:1016800053FF80B2031C002800D101239BB230001D
:1016900099000193FEF748FF271A844200D2071BE6
:1016A00005252B0063430393042302933000039921
:1016B000FEF73AFF80B2031C002800D101239BB241
:1016C0001900300069430593FEF72EFF231A844268
:1016D00000D2031BBB4203D81F00059B0295019358
:1016E000039B01351B190393212DDFD164212000B9
:1016F000FEF71AFF032343430220BB4219D9029B82
:10170000043B032B06D8C423049A5B0513438022B1
:1017100092021A60E1228320049B52051A43029B25
:101720004005013B1B061360049B1843019B0360AB
:10173000002007B0F0BDF4235B050343022903D169
:10174000802292051A60704790220830520510439B
:10175000090100220160F5E7842308304A085B058F
:10176000034352001A6080235B051843012319408C
:1017700001607047012310B58B400400080C042859
:101780000AD8FEF7BDFE030E14171A008020002AA7
:1017900003D000050443236010BDC004DB430443B1
:1017A000F9E7201D8024002A0AD02405F2E7200052
:1017B0000830F7E720000C30F4E720001030F1E7A4
:1017C000E404EBE70200002300B5080C042808D865
:1017D0000133FEF795FE03080A0C0E001068C8409E
:1017E0000340180000BD5068F9E79068F7E7D0683B
:1017F000F5E71069F3E710B5FFF7E4FF10BD00004F
:10180000174A0300881800B5102827D8FEF778FE7D
:1018100023201714110E09262626261A26262626E8
:101820001D008022520300205A6000BD8022120356
:10183000F9E78022D202F6E780229202F3E78022C3
:101840005202F0E780221206EDE78022D205EAE795
:1018500080221202E7E78022D201E4E70420E4E7D5
:10186000F2FFFEFF70B50D4B8400E35808201E7D8B
:10187000F5B2002E10D10630002A0DD0DA60012218
:1018800059601A75DC230648802220585B05083011
:101890000343280012041A6070BDC04630000020C7
:1018A000102300000A4B800070B5C458094B002576
:1018B000C258DC2308325B0513431D60A37DAB4295
:1018C00003D020001830FFF734FD257570BDC046E9
:1018D00030000020102300000C4B800070B5C4586D
:1018E0000B4B0025C058D42302005B05083213437C
:1018F0001D602A000749FFF73DFFE37DAB4203D09F
:1019000020002430FFF715FD657570BD3000002004
:10191000102300001B000200F7B58300019316009E
:101920002A4B019A0090D7580D000D20002F4BD163
:10193000274B3900D4582800402200F048FA234BA6
:10194000019A0098D5503378224A9B061360FFF71E
:101950002DFE2000FFF778FE280039001830FFF731
:10196000E1FC280039002430FFF7DCFC0098FFF789
:10197000F5FD726801002000FFF77AFE2000B17AC1
:10198000FFF7D9FE2000317AFFF7E6FEB423727A22
:101990005B05234352031A60CC22802101230834C3
:1019A0005205224309032B701160C82252051443CB
:1019B0008022D20200992260074A3800525C1F211F
:1019C0000A409340054A1360FEBDC0463000002027
:1019D0001023000004800C5D04FEFF1F00E100E006
:1019E000044B10B58400E35800249C75FFF73AFFC0
:1019F00010BDC04630000020054B8000C358D86899
:101A0000002900D00860431E9841C0007047C046BE
:101A100030000020F8B5314A83009C58304A060057
:101A20009D58237D002B02D1637D002B42D0D4230F
:101A30002F005B051A0008373A431268002A0DD0C0
:101A40002A1D13431B68002B08D0EB68A268137093
:101A5000236B002B2FD0210030009847DC235B053F
:101A60001F433A68002A1BD02A1D13431B68002B12
:101A700016D0E368002B13D02778002F10D06368AE
:101A80001A78EA60A26B002A22D021003000904729
:101A9000E368013FFFB2002BEFD13000FFF702FFF8
:101AA00028001049FFF7A7FE002803D028000D49A1
:101AB000FFF7A6FEF8BDA3680133A3602369013BCD
:101AC00023612369002BC9D13000FFF705FFC5E76B
:101AD00001336360E368013BE360D9E73000002035
:101AE00010230000130001008422520502431278E3
:101AF0000300D0B2002A05D1094A991D0A43127881
:101B0000012A0CD1802001334005034318780138A5
:101B100043425841034B40421840034BC0187047A2
:101B200000000811808D5B0080841E00020070B5EB
:101B3000074B083213431C78064B103213431D78B1
:101B4000FFF7D2FFEDB2E4B26419E04070BDC046C9
:101B500000009010000010100C4A811D0A431278FA
:101B60000300D0B2012A04D002280BD000280BD1E8
:101B7000704780220133520513431B78002BF7D1A5
:101B80000220F5E70320F3E70620F1E70000081143
:101B900002009C2318325B05134380221A70002236
:101BA000054B03431A70054B063018430378DAB22D
:101BB000002BFBD110007047000008130000081133
:101BC00070B504000E001500FFF7C6FF01281ED1F6
:101BD000002E20D08023621C5B0513431E708423DB
:101BE00002225B0523431A7022000D4B0832134377
:101BF00040226D00EDB21D700A4B0B4823430634A2
:101C00001A7004432378012BFCD1002070BD0228F8
:101C1000E0D1012EDED12000FFF7BAFFDAE7C0469F
:101C20000000901000000813000008110F4A030084
:101C300012680120002A17D080210D4A1A43117022
:101C40008822191852050A4312780633824205D1B8
:101C5000842252051A4311780029FCD00548034319
:101C60001A78022AFCD100207047C04634000020B8
:101C700000000813000008110F22037893430B4360
:101C8000DBB20370704700000F4B820070B5040098
:101C9000D05880220D4B92051A6000F02DF80C4BA5
:101CA0001F261A5D012318000A493240095DC0252C
:101CB000314090408B40084A6D00505153511060A4
:101CC0000020136070BDC046142300003C80845E79
:101CD000182300001923000000E100E06B46E02219
:101CE0001B78D2021B0413400907024A0B4383509E
:101CF0007047C046441000000200802314325B0588
:101D00001A431268002A0BD002001032134300213C
:101D100001221A60196043681B0C1B0443600260B7
:101D2000902200231C305205024313608822520582
:101D3000024313608422520502431360802252053D
:101D40001043036070470000084B10B50400002BDF
:101D500002D0002100E000BF054B1868836A002B09
:101D600000D09847200000F043F8C0460000000073
:101D70001C23000070B500260C4D0D4C641BA410F4
:101D8000A64209D1002600F0CBFA0A4D0A4C641B8A
:101D9000A410A64205D170BDB300EB589847013698
:101DA000EEE7B300EB5898470136F2E74023000016
:101DB000402300004023000044230000002310B50E
:101DC0009A4200D110BDCC5CC4540133F8E7030043
:101DD0008218934200D1704719700133F9E703006C
:101DE0000A7801311A700133002AF9D170470000D6
:101DF000FEE7C04601000000802500000000000052
:101E00000D0A3442323520436F75727365776F72F5
:101E10006B2023350943525349443A206161616E76
:101E200073320D0A000D0A43686F6F736520746882
:101E30006520666F6C6C6F77696E67206F70746970
:101E40006F6E730D0A000D2D202761273A2044691B
:101E500073706C6179204C50554152542053657415
:101E600074696E672E0A000D2D202762273A204DD7
:101E7000616B6520746865204C5055415254205464
:101E800078207472616E736D6974202748656C6C7C
:101E90006F20576F726C642E270A000D2D20276368
:101EA000273A204D616B6520746865204C50554180
:101EB0005254205478207472616E736D69742027B7
:101EC000344232353A20456D62656464656420535E
:101ED000797374656D20666F7220496E7465726ED9
:101EE0006574206F66205468696E67732E270A0038
:101EF0000D2D202764273A204D616B65207468659D
:101F0000204C5055415254205478207472616E73A5
:101F10006D697420616C6C207570706572206361EE
:101F20007073206C6574746572732027412D5A2775
:101F30002E0A000D2D202765273A204D616B652064
:101F4000746865204C505541525420547820747266
:101F5000616E736D697420616C6C206C6F77657253
:101F60002063617073206C657474657273202761DF
:101F70002D7A272E0A000D2D202766273A204D6145
:101F80006B6520746865204C50554152542054783C
:101F9000207472616E736D697420616C6C206E7553
:101FA0006D6265722027302D39272E0A000D2D20F5
:101FB0002767273A204D616B6520746865204C5077
:101FC00055415254205478207472616E736D697457
:101FD00020616C6C2073796D626F6C732E0A000D3A
:101FE0002D202768273A204D616B65207468652095
:101FF0004C5055415254205478207472616E736D68
:10200000697420696E7075742066726F6D207468D3
:1020100065206B6579626F6172640A000D456E74AC
:1020200065722073656C656374696F6E3E20000D88
:102030000A4261756420726174653A203936303025
:102040000D0A000D0A42697420636F756E7420706A
:10205000657220636861723A20382D626974730D6D
:102060000A000D0A506172697479206D6F64653AD7
:10207000204E6F6E650D0A000D0A53746F7020625A
:1020800069743A20310D0A000D0A4C5055415254E2
:1020900020636C6F636B20736F757263653A206B9E
:1020A000436C6F636B4C70756172745372634972E9
:1020B0006334384D0D0A000D0A0A2B2B2B2B2B4CA9
:1020C0005055415254205472616E736D6973736937
:1020D0006F6E2B2B2B2B2B0D0A000D0A547970657C
:1020E00020636861726163746572732066726F6DDC
:1020F000206B6579626F6172642C20746865206260
:102100006F6172642077696C6C20726563656976B3
:102110006520616E64207468656E206563686F2059
:102120007468656D20746F207465726D696E616C82
:102130002073637265656E20287265736574207400
:10214000686520626F61726420746F2073746F70B1
:10215000290D0A000D094C657427732074727920CB
:102160007468617420616761696E000D09496E765B
:10217000616C69642073656C656374696F6E202798
:1021800025632720210A000D0A48656C6C6F2057D3
:102190006F726C642E0D0A000D0A344232353A20FB
:1021A000456D6265646465642053797374656D2060
:1021B000666F7220496E7465726E6574206F66205A
:1021C0005468696E67732E0D0A000D0A414243443C
:1021D00045464748494A4B4C4D4E4F505152535437
:1021E00055565758595A0D0A000D0A6162636465C5
:1021F000666768696A6B6C6D6E6F70717273747507
:10220000767778797A0D0A000D0A30313233343519
:10221000363738390D0A000D0A7E60213F402324ED
:10222000255E262A28292D2B5F3D7B7D5B5D3C7C2E
:102230003E3B3A272C2E2F5C720A000D0A0A2B2BEC
:102240002B2B2B4C5055415254205472616E736DA0
:10225000697373696F6E2B2B2B2B2B0D0A000D0AE4
:10226000547970652063686172616374657273206C
:1022700066726F6D206B6579626F6172642C207479
:10228000686520626F6172642077696C6C2072658A
:10229000636569766520616E64207468656E20658B
:1022A00063686F207468656D20746F207465726D4B
:1022B000696E616C2073637265656E202872657348
:1022C00065742074686520626F61726420746F2089
:1022D00073746F700D0A005465726D696E616C00E5
:1022E000525454005345474745520030313233343D
:1022F0003536373839414243444546000000000036
:10230000000100000000010000500640898A000022
:102310000040054000D003401415000008FEFF1FD8
:10232000F8B5C046F8BC08BC9E467047F8B5C04634
:08233000F8BC08BC9E46704792
:0823380020E1FF7F010000001D
:04234000390400005C
:042344001104000080
:1023480000093D000C000000000000000000000033
:102358000000000000000000000000000000000075
:102368000000000000000000000000000000000065
:102378000000000000000000000000000000000055
:102388000000000000000000000000000000000045
:102398000000000000000000000000000000000035
:0823A80000000000000000002D
:04000003000004D91C
:00000001FF
