:1000000000060020D9040000E9040000E904000013
:1000100000000000000000000000000000000000E0
:10002000000000000000000000000000E9040000E3
:100030000000000000000000E9040000E9040000E6
:10004000E9040000E9040000E9040000E9040000FC
:10005000E9040000E9040000E9040000E9040000EC
:10006000E9040000E9040000E9040000E9040000DC
:10007000A9070000E9040000E9040000E904000009
:10008000E9040000E9040000E9040000E9040000BC
:10009000E9040000E9040000E9040000E9040000AC
:1000A000E9040000E9040000E9040000E90400009C
:1000B000E9040000E9040000E9040000E90400008C
:10040000FFFFFFFFFFFFFFFFFFFFFFFFFE3DFFFFBF
:1004100010B5064C2378002B07D1054B002B02D0DA
:10042000044800E000BF0123237010BD6CFEFF1FD5
:1004300000000000D03B0000044B10B5002B03D09F
:100440000349044800E000BF10BDC04600000000A2
:1004500070FEFF1FD03B0000402292029A1A924683
:100460007047C046174B002B00D1134B9D46FFF73A
:10047000F3FF00218B460F461348144A121A01F06D
:100480006BFF0E4B002B00D098470D4B002B00D07C
:1004900098470020002104000D000D48002802D0DC
:1004A0000C4800E000BF01F033FF2000290000F0FD
:1004B0000BF901F007FFC046000008000000000033
:1004C00000000000000600206CFEFF1FB8FEFF1FAA
:1004D000000000000000000072B600F04DFA00F0CD
:1004E00069FA62B6FFF7BEFF00480047E904000062
:1004F00003B47146490840004900095E49008E4432
:1005000003BC7047002243088B4274D303098B421B
:100510005FD3030A8B4244D3030B8B4228D3030CD3
:100520008B420DD3FF22090212BA030C8B4202D375
:100530001212090265D0030B8B4219D300E0090A9D
:10054000C30B8B4201D3CB03C01A5241830B8B42A6
:1005500001D38B03C01A5241430B8B4201D34B038F
:10056000C01A5241030B8B4201D30B03C01A5241F4
:10057000C30A8B4201D3CB02C01A5241830A8B4279
:1005800001D38B02C01A5241430A8B4201D34B0262
:10059000C01A5241030A8B4201D30B02C01A5241C6
:1005A000CDD2C3098B4201D3CB01C01A524183097A
:1005B0008B4201D38B01C01A524143098B4201D3B4
:1005C0004B01C01A524103098B4201D30B01C01ADF
:1005D0005241C3088B4201D3CB00C01A5241830859
:1005E0008B4201D38B00C01A524143088B4201D386
:1005F0004B00C01A5241411A00D2014652411046E6
:100600007047FFE701B5002000F006F802BDC046C4
:100610000029F7D076E770477047C04680B584B0B0
:1006200000AF7860114B1B68002B02D10F4B104AB2
:100630001A600E4B1B68FB600C4B1A687B68D21863
:100640000C4B9A4207D901F037FE03000C221A60C6
:1006500001235B4206E0054B1A687B68D218034B06
:100660001A60FB681800BD4604B080BD88FEFF1FFD
:10067000B8FEFF1FB800002080B584B000AFF8605E
:10068000B960FB1D1A70BB681F2B05D90A4B0B4ABA
:100690000B48FF2101F0F2FDFB1D1A78BB689B009F
:1006A000F968CB181900074B0B4312021A60C046B9
:1006B000BD4604B080BDC04678330000C838000095
:1006C000843300000000101490B597B000AF53239E
:1006D000FB1800221A705223FB1800221A70002304
:1006E0007B653B1D2C4A13CA13C3002000F06AFC33
:1006F000012000F067FC00F0CFF8284B0222012116
:100700001800FFF7B9FF254B022202211800FFF75E
:10071000B3FF3A1D1023FB181900002000F0E8FF7A
:1007200036237B657A6D1E4B1900002001F078F8A6
:10073000C0460021002001F0B3F80300082BF8D0D8
:100740002A237B657A6D174B1900002001F068F8A9
:10075000C0460021002001F0A3F80300082BF8D0C8
:100760005323FB1801221900002001F0D1F8C046E4
:100770000021002001F00CF90300092BF8D05323CD
:10078000FB181A7852217B181A707B180122190065
:10079000002001F045F8E3E7C433000000A0044066
:1007A000643800009C38000080B500AF002001F0E4
:1007B00027F9C046BD4680BD80B584B000AFF86063
:1007C000B960FB1D1A70BB681F2B05D90A4B0B4A79
:1007D0000B48FF2101F052FDFB1D1A78BB689B00FE
:1007E000F968CB181900074B0B4312021A60C04678
:1007F000BD4604B080BDC046D0330000E8380000DC
:10080000DC3300000000101480B582B000AF7860C7
:100810000A00FB1C1A707B68FA1C12781A70C0461A
:10082000BD4602B080BD80B584B000AF3B1D18004E
:100830000C231A00002101F08FFD3B1D80221202C3
:100840001A603B1D01221A723B1D1900002000F0A6
:100850004FFAC046BD4604B080BD000080B582B0EE
:1008600000AF78607B680933180000F045FB7B68B7
:1008700007331900002000F0B3FA7B68180000F07D
:10088000C1F9034B034A1A60C046BD4602B080BDA1
:1008900000FEFF1F006CDC0280B500AF0C4B222174
:1008A0001800FFF7B1FF0B4B002212211800FFF7D1
:1008B00083FF084B002213211800FFF77DFFFFF78D
:1008C000B2FF054B1800FFF7C9FFC046BD4680BD0B
:1008D00000E0074000900440DC38000090B585B08F
:1008E00000AFF860B9607A60BB68002B02D10123C9
:1008F0005B4218E0FB68012B05D0FB68022B02D09D
:1009000001235B420FE00A4B1B78002B02D101232D
:100910005B4208E0064B9C68054B5B687A68B968E7
:100920001800A0477B681800BD4605B090BDC046C2
:100930008CFEFF1F90B585B000AFF860B9607A609B
:10094000FB68002B02D001235B420FE0094B1B78B0
:10095000002B02D101235B4208E0064BDC68054B0B
:100960005B687A68B9681800A0477B681800BD46C4
:1009700005B090BD8CFEFF1F80B500AF0B4B9B7880
:10098000DBB21A000823134007D0084B9B78DBB278
:10099000064A08210B43DBB29370054A88235B01AA
:1009A0000021D150C046BD4680BDC04600D00740A2
:1009B0000070044080B588B000AF284BFB60284A27
:1009C000284B9A4216D00023FB610AE0254BFA69B6
:1009D0009200D158224BFA699200D150FB69013341
:1009E000FB61FB689B08FA699A42EFD31E4B1C4AD5
:1009F0009A6002E01C4B1B4A9A601C4BBB611C4B6B
:100A00007B611C4BBB60BA687B69D31AFB6107E052
:100A10007A69531C7B61BB69591CB96112781A70E1
:100A2000FB695A1EFA61002BF2D1134B3B61134B49
:100A30007B607A683B69D31AFB6104E03B695A1C0E
:100A40003A6100221A70FB695A1EFA61002BF5D137
:100A5000C046C046BD4608B080BDC046000000008C
:100A6000000000000000000000ED00E000FEFF1F9D
:100A7000F83B0000643C00006CFEFF1FB8FEFF1F47
:100A800080B582B000AF78600A00FB1C1A707B68EA
:100A900001331A0080235B0513431A00FB1C1B78EB
:100AA0001370C046BD4602B080BD000080B582B064
:100AB00000AF78600A00FB1C1A707B6818331A00BC
:100AC000044B13431A00FB1C1B781370C046BD4631
:100AD00002B080BD0000101080B582B000AF786019
:100AE0000A00FB1C1A70FB1C19787B681A0084230F
:100AF0005B0513431A000B1CDB18DBB21370C046F6
:100B0000BD4602B080BD80B582B000AF78600A00FB
:100B1000FB1C1A707B681A0080235B0513431A00C4
:100B2000FB1C1B781370C046BD4602B080BD80B56B
:100B300082B000AF78600A00FB1C1A70FB1C1B78A7
:100B40007A68183211009C2252050A43DB01DBB29D
:100B50001370C046BD4602B080BD80B582B000AF04
:100B600078600A00FB1C1A707B6801331A00882326
:100B70005B0513431A00FB1C1B789B00DBB2137050
:100B8000C046BD4602B080BD80B582B000AF78607F
:100B90007B6806331A0084235B0513431B78DBB2A2
:100BA0005A1E9341DBB21800BD4602B080BD80B52D
:100BB00082B000AF78600A00FB1C1A70FB1C1B7827
:100BC0007A6811009C2252050A43DB01DBB21370E4
:100BD000C046BD4602B080BD80B582B000AF78602F
:100BE0000A00FB1C1A70FB1C1B787A681100942207
:100BF00052050A435B01DBB21370C046BD4602B02A
:100C000080BD000090B585B000AF78600F23FB1861
:100C100000221A707B681B78042B06D9304B314AAE
:100C20001221FF31304801F029FB7B681B78042B2F
:100C300008D01DDC022B02DC002B03DC18E0032BA8
:100C40000DD015E07B68D9787B681B790F22BC1822
:100C500026481A0001F0C8F90300237011E00F23A1
:100C6000FC18224B180001F019FA0300237008E069
:100C70000F23FC181D4B180001F098F90300237096
:100C8000C0460F23FB181B78002B22D17B689B7971
:100C9000164A19001000FFF74AFF7B685B78134A79
:100CA00019001000FFF718FF7B689B780F4A1900A6
:100CB0001000FFF728FF7B68DB780C4A1900100052
:100CC000FFF7DEFE7B685B79084A19001000FFF72A
:100CD000EDFE0F23FB181B781800BD4605B090BD34
:100CE000A0340000FC380000403400000040064002
:100CF00080B584B000AF786039607B68002B05D088
:100D0000304B314A3149324801F0B8FA0023FB60D8
:100D10003B681B7A012B28D13B681B79002B01D043
:100D2000082200E000223B685B79002B01D00423FD
:100D300000E000231A433B689B79002B01D002237B
:100D400000E000231A433B68DB79002B01D001232C
:100D500000E000231343FB601E4B7A689200D358D7
:100D6000FA681100180001F0D1F93B681B7A1A4AA1
:100D700019001000FFF7F1FE3B6809331A007B6889
:100D80001100180000F02CF83B681B7A012B0FD1E2
:100D90003B685B7A002B0BD0C0460F4B1800FFF767
:100DA000F3FE03001A0001235340DBB2002BF4D101
:100DB0003B681A68094B1A6000231800BD4604B04E
:100DC00080BDC046D0340000183900005603000032
:100DD000403400002C39000000400640A0FEFF1FF8
:100DE00080B582B000AF786039600C4B7A689200B1
:100DF000D2583B681B7819001000FFF7D8FE074B4C
:100E00007A689200D2583B685B7819001000FFF7AF
:100E1000E3FEC046BD4602B080BDC0462C3900008E
:100E200080B582B000AF78600A00FB1C1A70FB1C12
:100E30001B781F221A407B680E495918FB1C1B782F
:100E40005B09DBB20C48844663449B00CB18180056
:100E5000FB1C1B78D905F8231B050B40034380219D
:100E600049050B43012191400A001A60C046BD4666
:100E700002B080BD34100000FDFFFF3F80B582B09E
:100E800000AF786039607B68054A944663441A0075
:100E9000044B13431B68DBB21800BD4602B080BD93
:100EA000041000000000081D80B582B000AF78601B
:100EB0000A00FB1C1A70FB1C1A787B681900044B93
:100EC0000B4392041A60C046BD4602B080BDC046C6
:100ED0000000081980B582B000AF78607B681A0006
:100EE0009C235B0513431B78DBB25A1E9341DBB294
:100EF0001800BD4602B080BD80B584B002AF7860F6
:100F00007B6859787B689B7808480093002300220F
:100F100001F012F97B681B78044A19001000FFF7F2
:100F2000C3FFC046BD4602B080BDC046007004404D
:100F300080B500AF064B1B681800FFF7CBFF031E00
:100F400002D0044B1B6800E000231800BD4680BDA2
:100F50002C390000A0FEFF1FB0B584B000AF786050
:100F60000B257C197B68144A19001000FFF786FFD7
:100F7000030023707B191B78032B0DD013DC012B8E
:100F800002D0022B03D00EE00C4BFB600EE0FFF70B
:100F9000CFFF0300FB6009E0094B180000F042FF9F
:100FA0000300FB6002E00023FB60C046FB68180002
:100FB000BD4604B0B0BDC04600700440006CDC0209
:100FC0000040064080B582B000AF78607B68012B9E
:100FD00006D90A4B0A4AD62149000A4801F04EF9BF
:100FE000094A7B68D3181B78084A19001000FFF7DC
:100FF00017FFC046BD4602B080BDC0467035000038
:101000003439000020350000303900000070044001
:1010100080B582B000AF78607B68002B06D0084BAB
:10102000084A9B218900084801F028F99422074BBF
:1010300011001800FFF7F4FEC046BD4602B080BDA7
:101040005436000050390000203500000070044084
:1010500080B582B000AF78607B680C4A1A607B680C
:101060000B4A5A607B6800229A60C0467B6808334E
:101070001A00CC235B0513431B68002BF6D17B6859
:1010800000221A61C046BD4602B080BD0400000FB8
:1010900000C01FC080B58AB000AFF860B9607A6048
:1010A0000423FB617B68FA6953431900B868FFF7B2
:1010B00029FA03001A0026217B181A800A00BB189F
:1010C0001B88002B02D1BB1801221A802623FB1893
:1010D0001B88FA6953431900B868FFF713FA030035
:1010E0003B613A697B689A4204D93A697B68D31AB2
:1010F0007B6103E07A683B69D31A7B612223FB188A
:1011000005221A8045E02223FB181B887A68534386
:101110001900B868FFF7F6F903001A0024217B18BC
:101120001A800A00BB181B88002B02D1BB180122B1
:101130001A802223FB181B882422BA1812885343D2
:101140001900B868FFF7DEF903003B613A697B6874
:101150009A4204D93A697B68D31ABB6103E07A6882
:101160003B69D31ABB61BA697B699A420BD8BB69E8
:101170007B612223FB181B88FB612623FB1824229A
:10118000BA1812881A8022217B181A887B1801321B
:101190001A802223FB181B88202BB4D97B6864217A
:1011A0001800FFF7AFF903001A0013005B009B184B
:1011B0007A699A4221D2FB69032B0AD9FB69072B72
:1011C00007D8FB681A00C4235B05134380229202F0
:1011D0001A60FB695A1EFB681900E1235B050B438B
:1011E00012061A60FB681A0083235B05134326224C
:1011F000BA1812881A60002300E002231800BD46C6
:101200000AB080BD80B582B000AF78600A00FB1CD8
:101210001A70FB1C1B78022B08D17B681A00F42380
:101220005B051343802292051A6010E0FB1C1A78BC
:101230007B680833190090235B050B4312011A6089
:101240007B681A00F4235B05134300221A60C04632
:10125000BD4602B080BD80B582B000AF78600A00A4
:10126000FB1C1A70FB1C1B785B08DBB21A007B6846
:101270000833190084235B050B4352001A60FB1CE2
:101280001A787B680833190080235B050B43012122
:101290000A401A60C046BD4602B080BD80B586B027
:1012A00000AFF860B960FB1D1A70BB681B0C7B6156
:1012B0000122BB689A4013003B617B69042B00D973
:1012C00076E07B699A003D4BD3181B689F46FB1D57
:1012D0001B78002B07D0FB681A0080231B051343E3
:1012E0003A691A6065E0FB681A008023DB04134347
:1012F0003A69D2431A605CE0FB1D1B78002B08D0D2
:10130000FB6804331A0080231B0513433A691A60F3
:101310004FE0FB6804331A008023DB0413433A696F
:10132000D2431A6045E0FB1D1B78002B08D0FB68F8
:1013300008331A0080231B0513433A691A6038E00A
:10134000FB6808331A008023DB0413433A69D24355
:101350001A602EE0FB1D1B78002B08D0FB680C33B5
:101360001A0080231B0513433A691A6021E0FB68C9
:101370000C331A008023DB0413433A69D2431A600A
:1013800017E0FB1D1B78002B08D0FB6810331A00F8
:1013900080231B0513433A691A600AE0FB68103387
:1013A0001A008023DB0413433A69D2431A6000E039
:1013B000C046C046BD4606B080BDC0466C39000080
:1013C00080B584B000AF786039603B681B0CBB60AF
:1013D0000F23FB1800221A70BB68042B46D8BB6889
:1013E0009A00264BD3181B689F467B681A683B6897
:1013F000DA40130001221A400F23FB18511E8A41C4
:101400001A7034E07B685A683B68DA4013000122A6
:101410001A400F23FB18511E8A411A7027E07B687F
:101420009A683B68DA40130001221A400F23FB1828
:10143000511E8A411A701AE07B68DA683B68DA400C
:10144000130001221A400F23FB18511E8A411A7003
:101450000DE07B681A693B68DA40130001221A40EC
:101460000F23FB18511E8A411A7000E0C0460F235B
:10147000FB181B781800BD4604B080BD8039000001
:1014800080B584B000AF786039600F23FB1800226C
:101490001A703B682A4A93420ED83B68294A934205
:1014A00042D33B68284A94466344102B3CD89A00A8
:1014B000264BD3181B689F463B68254A94466344D5
:1014C000012B31D80F23FB1804221A7031E07B68FE
:1014D000802252035A602CE07B68802212035A60FB
:1014E00027E07B688022D2025A6022E07B6880225B
:1014F00092025A601DE07B68802252025A6018E016
:101500007B68802212065A6013E07B688022D20535
:101510005A600EE07B68802212025A6009E07B6804
:101520008022D2015A6004E00F23FB1804221A70B3
:10153000C0460F23FB181B781800BD4604B080BDC1
:101540001E0001000E000100F2FFFEFF94390000B2
:10155000F2FFFCFF80B582B000AF0200FB1D1A70E5
:10156000FB1D1B781A001F231A40044B01219140D8
:101570000A001A60C046BD4602B080BD00E100E02E
:1015800080B582B000AF78600A00FB1C1A70FB1CAB
:101590001A787B6808331900CC235B050B43D2040F
:1015A0001A60C046BD4602B080BD80B582B000AFB3
:1015B00078600A00FB1C1A70FB1C1A787B680833E1
:1015C0001900C8235B050B4392041A60C046BD4650
:1015D00002B080BD80B582B000AF78600A00FB1C0D
:1015E0001A70FB1C1A787B681900B4235B050B4347
:1015F00052031A60C046BD4602B080BD80B582B0BD
:1016000000AF78600A00FB1C1A70FB1C1A787B681C
:10161000DA60C046BD4602B080BD80B582B000AF82
:10162000786039607B68DB68DAB23B681A70C04664
:10163000BD4602B080BD000080B584B000AFF86048
:10164000B960FB1D1A70FB1D1A78FB6805498C46B2
:1016500063441900044B0B4392061A60C046BD4612
:1016600004B080BD041000000000081D80B582B0E9
:1016700000AF78600A00FB1C1A70FB1C1A787B68AC
:1016800003481900FFF7D8FFC046BD4602B080BD31
:101690000070044080B582B000AF0200FB1D1A70DC
:1016A000FB1D1B787F2B05D90D4B0E4A0E485D2183
:1016B00000F0E4FDFB1D1B785BB21F2B05DD0B4B1F
:1016C000084A09485E2100F0D9FDFB1D1B785BB27A
:1016D0001800FFF73FFFC046BD4602B080BDC046C0
:1016E000CC360000E8390000DC360000203700006E
:1016F00080B586B000AFF860B9607A60BB68002B37
:1017000002D07B68002B05D13E4B3F4A3F48542115
:1017100000F0B4FDFB68002B05D03D4B3A4A3B4836
:10172000552100F0ABFD3B4BFA689200D3587B612A
:10173000394BFA689200D358002B01D00D235DE09D
:10174000BB6840220021180000F006FE324BFA6808
:101750009200B968D1507B681A78FB6811001800B4
:10176000FFF784FFFB681800FFF752FC7B69180045
:10177000FFF76EFCBB6818330021180000F008FD6D
:10178000BB6824330021180000F002FDFB6818003C
:10179000FFF7E2FB03003B617B685A6839697B69AC
:1017A0001800FFF777FC7B689A7A7B6911001800B4
:1017B000FFF728FD7B681A7A7B6911001800FFF794
:1017C0004AFD7B685A7A7B6911001800FFF702FF17
:1017D000BB6801221A707B6901211800FFF7D0FE57
:1017E0007B6901211800FFF7E0FE0C4AFB68D31863
:1017F0001B785BB21800FFF74DFF00231800BD46B1
:1018000006B080BD4C370000D839000070370000AA
:10181000B8370000D83A00009CFEFF1F04FEFF1FEF
:10182000B0B586B000AFF860B9607A60BB68002BD5
:1018300006D1164B164A6421FF31164800F01EFDF2
:10184000FB68002B06D0144B114AB2214900114805
:1018500000F014FD17217B1800221A700F4BFA6854
:101860009200D3583B613B6900229A750D007C18A9
:101870007A68B968FB68180000F07AF903002370F1
:101880007B191B781800BD4606B0B0BDDC370000E0
:10189000FC39000070370000B83700009CFEFF1FC5
:1018A00080B586B000AF786039607B68002B06D0C9
:1018B000134B144A8021FF31134800F0DFFC134B17
:1018C0007A689200D3583B611723FB1800221A70E4
:1018D0003B69DB68FB603B68002B02D03B68FA6821
:1018E0001A60FB68002B03D01723FB1808221A701C
:1018F0001723FB181B781800BD4606B080BDC046F4
:10190000B8370000103A0000703700009CFEFF1F3F
:10191000B0B586B000AFF860B9607A60BB68002BE4
:1019200006D1164B164AFA21FF31164800F0A6FCE4
:10193000FB68002B06D0144B114AFD2149001148C9
:1019400000F09CFC17217B1800221A700F4BFA68DC
:101950009200D3583B613B690022DA750D007C1878
:101960007A68B968FB68180000F086F903002370F4
:101970007B191B781800BD4606B0B0BDE4370000E7
:10198000303A000070370000B83700009CFEFF1F9F
:1019900080B586B000AF786039607B68002B06D0D8
:1019A000134B144A85218900134800F067FC134B40
:1019B0007A689200D3583B611723FB1800221A70F3
:1019C0003B691B69FB603B68002B02D03B68FA68EF
:1019D0001A60FB68002B03D01723FB1809221A702A
:1019E0001723FB181B781800BD4606B080BDC04603
:1019F000B8370000483A0000703700009CFEFF1F17
:101A000080B586B000AF7860564B7A689200D358A4
:101A10003B61554B7A689200D358FB603B691B7D54
:101A2000DBB201225340DBB2002B08D03B695B7D67
:101A3000DBB201225340DBB2002B00D08EE0FB680A
:101A400008331A00D4235B0513431B68002B2CD0EA
:101A5000FB6804331A00D4235B0513431B68002B77
:101A600023D03B699A68FB6811001800FFF7D5FD89
:101A70003B691B6B002B06D03B691B6B39697A688D
:101A80001000984711E03B699B685A1C3B699A60BB
:101A90003B691B695A1E3B691A613B691B69002B34
:101AA00003D17B68180000F03BF9FB6808331A008B
:101AB000DC235B0513431B68002B40D0FB68043319
:101AC0001A00DC235B0513431B68002B37D03B69EE
:101AD000DB68002B33D01723FB183A6912781A7091
:101AE00025E03B695B681A78FB6811001800FFF776
:101AF00085FD3B699B6B002B06D03B699B6B39696D
:101B00007A681000984709E03B695B685A1C3B699A
:101B10005A603B69DB685A1E3B69DA603B69DB68E7
:101B2000002B04D17B68180000F06AF807E0172248
:101B3000BB181B78BA18591E1170002BD1D10B4A53
:101B4000FB6811001800FFF73BFC031E07D0074A93
:101B5000FB6811001800FFF793FC00E0C046BD468B
:101B600006B080BD9CFEFF1FD83A000013000100A4
:101B700080B586B000AFF860B9607A60FB68002B72
:101B800006D01A4B1A4AAD2189001A4800F076FB9C
:101B9000194BFA689200D3587B61184BFA6892008F
:101BA000D3583B613B691B7DDBB2002B01D008237E
:101BB00017E07B68002B01D10E2312E03B69BA6865
:101BC0005A603B697A68DA603B6901221A757B6961
:101BD00008331A00DC235B051343802212041A60C9
:101BE00000231800BD4606B080BDC046B8370000CF
:101BF000643A000070370000D83A00009CFEFF1FD6
:101C000080B584B000AF78607B68002B06D0154BA0
:101C1000154AB7218900154800F030FB144B7A684B
:101C20009200D358FB60134B7A689200D358BB6084
:101C3000FB6808331A00DC235B05134300221A609B
:101C4000BB689B7DDBB2002B04D0BB681833180047
:101C500000F0C6FABB6800221A75C046BD4604B043
:101C600080BDC046B8370000803A000070370000E1
:101C7000D83A00009CFEFF1F80B586B000AFF86028
:101C8000B9607A60FB68002B05D01E4B1E4A1F49C5
:101C90001F4800F0F3FA1F4BFA689200D3587B619B
:101CA0001D4BFA689200D3583B617B695B7DDBB2C8
:101CB000002B05D07B691B6B002B01D109231DE094
:101CC0007B68002B01D10E2318E07B6901225A7535
:101CD0007B69BA689A607B697A681A610F493B69C7
:101CE00001221800FFF7DAFA3B6908331A00D423FF
:101CF0005B051343802292031A6000231800BD463F
:101D000006B080BDB83700009C3A0000FA0200001F
:101D1000703700009CFEFF1FD83A00001B00020035
:101D200080B584B000AF78607B68002B05D0174B7E
:101D3000174A1849184800F0A1FA184B7A6892001F
:101D4000D358FB60164B7A689200D358BB60BB68CF
:101D500008331A00D4235B05134300221A6011498B
:101D6000BB6800221800FFF799FAFB68DB7DDBB245
:101D7000002B04D0FB682433180000F031FAFB6814
:101D800000225A75C046BD4604B080BDB837000079
:101D9000B83A000023030000703700009CFEFF1FCC
:101DA000D83A00001B00020080B582B000AF786016
:101DB0007B6806331A00044B13431B78DBB2180010
:101DC000BD4602B080BDC0460000081180B582B09B
:101DD00000AF78607B681A0084235B0513431B788F
:101DE000DBB2002B06D17B681800FFF7DDFF030094
:101DF000012B0DD17B6801331A0080235B0513434F
:101E00001B78DBB2012B01D1044B02E0044B00E054
:101E100000231800BD4602B080BDC04600127A0003
:101E200080841E00B0B584B000AF78607B68083352
:101E30001A00104B13431A000F243B1912781A7022
:101E40007B6818331A000C4B13431A000E257B19BC
:101E500012781A707B681800FFF7B8FF01003B1971
:101E60001A787B191B78D318D9400B001800BD468F
:101E700004B0B0BD000090100000101080B582B01A
:101E800000AF78600A00FB1C1A70FB1C19787B6895
:101E90001A0084235B0513431A000B1CDB18DBB20A
:101EA0001370C046BD4602B080BD80B582B000AFA1
:101EB00078600A00FB1C1A70FB1C1B787A681832C9
:101EC00011009C2252050A43DB01DBB21370C046AD
:101ED000BD4602B080BD000080B582B000AF786022
:101EE0007B6806331A00044B13431B78DBB21800DF
:101EF000BD4602B080BDC0460000081180B582B06A
:101F000000AF78607B6806331A0084235B051343B7
:101F10001B78DBB25A1E9341DBB21800BD4602B0FB
:101F200080BDB0B584B000AF78600F23FB180622E7
:101F30001A700E257C197B681800FFF7CDFF03008F
:101F400023707B191B78022B1ED022DC002B02D0C1
:101F5000012B05D01DE00F23FB1800221A701DE095
:101F60007B6801331A0080235B0513431B78DBB2C7
:101F7000002B04D10F23FB1802221A700EE00F234E
:101F8000FB1801221A7009E00F23FB1803221A70B4
:101F900004E00F23FB1806221A70C0460F23FB181B
:101FA0001B781800BD4604B0B0BD000080B582B0FB
:101FB00000AF78607B6801211800FFF776FF7B682F
:101FC0001A00084B134300221A70C0467B681800A1
:101FD000FFF782FF031EF9D100231800BD4602B0AF
:101FE00080BDC04600000813B0B584B000AF786073
:101FF00008001100FB1C021C1A70BB1C0A1C1A7082
:102000000F257C197B681800FFF78BFF03002370F6
:102010007B191B78012B03D1FB1C1B78002B08D0EC
:102020000F23FB181B78022B07D1FB1C1B78012BFD
:1020300003D17B681800FFF7B9FF7B6801331A00F2
:1020400080235B0513431A00FB1C1B7813707B680D
:1020500001211800FFF712FF7B6808331A000D4BAF
:1020600013431A00BB1C1B78DB18DBB213707B68B0
:102070001A00094B134340221A70C0467B681800AF
:10208000FFF72AFF0300012BF8D100231800BD46FB
:1020900004B0B0BD000090100000081380B582B0FD
:1020A00000AF7860174B1B68002B01D1012324E09F
:1020B0007B681A00144B134380221A707B6801332B
:1020C0001A0088235B0513431B78DBB2012B0BD16D
:1020D000C0467B681800FFF711FF03001A000123B8
:1020E0005340DBB2002BF4D1C0467B681800FFF7E9
:1020F000F3FE0300022BF8D100231800BD4602B006
:1021000080BDC046A0FEFF1F0000081380B582B04E
:1021100000AF786039607B681B78DBB20F22934395
:10212000DAB23B68DBB21343DAB27B681A70C0469E
:10213000BD4602B080BD000090B585B000AF7860AC
:102140000C0010001900FB1C221C1A70BB1C021C86
:102150001A707B1C0A1C1A700023FB60FB1C1B7886
:102160001B07FA681343FB602023FB181B781A0433
:10217000E023DB021340FA681343FB607B680349EA
:10218000FA685A50C046BD4605B090BD44100000E4
:1021900080B582B000AF78600A00FB1C1A707B68C3
:1021A000002B05D10B4B0C4A0C48762100F066F849
:1021B0007B68FA1C12785A707B6800221A707B6860
:1021C00000225A607B6800229A6000231800BD46F6
:1021D00002B080BDEC370000DC3A0000F4370000AC
:1021E00080B582B000AF78607B68002B05D10E4BC4
:1021F0000E4A0F48CE2100F041F87B685B78DBB2D5
:10220000FF2B01D101230BE000F02AF87B685B78FB
:10221000DBB20133DAB27B685A7000F00BF80023AE
:102220001800BD4602B080BDEC370000EC3A00005B
:10223000F437000080B500AF084B1B68002B0BD0B3
:10224000064B1B685A1E054B1A60044B1B68002B7B
:1022500001D162B600E0C046BD4680BDA4FEFF1FAE
:1022600080B500AF72B6C046034B1B685A1C024BC8
:102270001A60C046BD4680BDA4FEFF1F30B51400E5
:102280001A00094B05001B6885B0D868074B002C65
:1022900001D1074B1C00019300912B0005490294CA
:1022A00000F026F800F0CCFC08FEFF1FF93A000011
:1022B000343B0000063B0000014B18687047C046E5
:1022C00008FEFF1F084B10B50400002B02D00021B0
:1022D00000E000BF054B1868836A002B00D09847C8
:1022E000200001F047F8C04600000000383B000025
:1022F0000EB403B5010003AB044804CB006801939E
:1023000000F002F902B008BC03B0184708FEFF1F36
:1023100070B500260C4D0D4C641BA410A64209D1CB
:10232000002601F055FC0A4D0A4C641BA410A6427D
:1023300005D170BDB300EB5898470136EEE7B30006
:10234000EB5898470136F2E7F03B0000F03B000005
:10235000F03B0000F43B000003008218934200D1E0
:10236000704719700133F9E770B50500002910D0E6
:102370000C1F2368002B00DAE418280000F0B2FEDE
:102380001D4A1368002B05D163601460280000F01B
:10239000B1FE70BDA34208D9216860188342F3D111
:1023A00018685B6841182160EEE71A005B68002B33
:1023B00001D0A342F9D911685018A0420BD120686E
:1023C0000918501811608342E0D118685B68411801
:1023D00011605360DAE7A04202D90C232B60D5E7E5
:1023E00021686018834203D118685B684118216036
:1023F00063605460CAE7C046A8FEFF1FF8B5032318
:10240000CD1C9D43083506000C2D1FD20C25A9427A
:102410001ED8300000F066FE25490A681400002C22
:102420001AD1244F3B68002B04D12100300000F06A
:1024300027FB38602900300000F022FB431C2BD121
:102440000C233000336000F055FE03E0002DDEDA8F
:102450000C2333600020F8BD23685B1B19D40B2BC1
:1024600003D92360E418256003E06368A2420ED11B
:102470000B60300000F03EFE200007220B30231DD1
:102480009043C21A9842E6D01B1AA350E3E7536068
:10249000EFE722006468C2E70323C41C9C43A04208
:1024A000E1D0211A300000F0EBFA431CDBD1C7E782
:1024B000A8FEFF1FACFEFF1F936810B5013B9360A1
:1024C000002B04DA9469A34207DB0A2905D01368BC
:1024D000581C10601970080010BD00F0E3FA0100EC
:1024E000F9E7F8B506000F001400D518AC4201D189
:1024F000002007E021783A003000FFF7DDFF0134CB
:10250000431CF3D1F8BD0000F0B5A1B006000C00EB
:102510001F000392002804D08369002B01D100F032
:10252000C5FC8E4B9C421CD17468636EDB0705D4DE
:10253000A3899B0502D4A06D00F059FDA3891B0758
:1025400002D52369002B1DD12100300000F000FBD3
:10255000002817D0636EDB070DD50120404221B063
:10256000F0BD7F4B9C4201D1B468DEE77D4B9C42BD
:10257000DBD1F468D9E7A3899B05EED4A06D00F008
:1025800037FDEAE7002308AD6B6120336B7610332B
:10259000AB760797039F3B78002B01D0252B4ED1BC
:1025A000039BFB1A0593039B9F420DD0059B2100C3
:1025B0003000039AFFF795FF431C00D1B5E06A692C
:1025C000059B944663446B613B78002B00D1ACE0E3
:1025D00001227B1C0393002352426A6004A95432F7
:1025E00052182B60EB60AB601370AB65039B052248
:1025F00019785D4800F06AFD039B5F1C002820D11C
:102600002A68D30604D5532304A95B182021197026
:10261000130704D5532304A95B182B211970039BBE
:102620001B782A2B16D00021EB68039F3A78781C80
:10263000303A8446092A4FD9002911D117E00137D1
:10264000A9E7494B2A68C01A0123834013432B6032
:102650000397CBE7079B191D1B680791002B01DB34
:102660000B9304E05B42EB60022313432B603B7847
:102670002E2B0AD17B782A2B37D1079B02371A1DC4
:102680001B680792002B2DDB09930322397837480A
:1026900000F01CFD002807D0344B2A68C01A4023E4
:1026A0008340134301372B6039787B1C0622304866
:1026B0000393297600F00AFD002845D02D4B002B0E
:1026C00027D10722079B07339343083307936B698E
:1026D000049A9B186B615DE70A214B4367469B1880
:1026E0000939A3E701235B42CEE700231A00013733
:1026F0006B603978781C30398446092903D9002B5E
:10270000C3D00992C1E70A235A4367465218093BCE
:10271000EFE707AB0093220029003000164B00E0E2
:1027200000BF0490049B0133D1D1636EDB0705D455
:10273000A3899B0502D4A06D00F05AFCA3895B0617
:1027400000D50AE70D980AE707AB0093220029009D
:102750003000094B00F082F8E3E7C046903B0000F0
:10276000B03B0000703B00003C3B0000423B0000DF
:10277000463B000000000000E3240000F7B5150010
:1027800001938A680B690C000090934200DA1300F1
:1027900022002B6043321278002A01D001332B60D3
:1027A00023689B0602D52B6802332B602268062320
:1027B00017001F401A4227D0230043331B785A1EAC
:1027C00093412268920630D4220001990098089E15
:1027D0004332B047431C25D0062320682A68E168AD
:1027E00000250340042B03D18D1AEB43DB171D405A
:1027F000A3682269934201DD9B1AED180027BD42B0
:1028000020D1002010E00137E3682A689B1ABB4200
:10281000D2DD2200012301990098089E1932B047A9
:10282000431CF0D101204042FEBD3020E11843316D
:10283000087021005A1C45310978A218433202332E
:102840001170C1E72200012301990098089E1A32F5
:10285000B047431CE6D00137D1E70000F0B58BB09C
:1028600006920A0043320793059004920A7E0C00F8
:10287000109B782A07D8622A09D8002A00D1C1E023
:10288000582A00D18CE026004236327022E0100037
:1028900063381528F7D8FDF72BFE16001F00F6FF4A
:1028A000F6FFF6FFF6FF1F00F6FFF6FFF6FFF6FF56
:1028B000A80036009A00F6FFF6FFB900F6FF3600D2
:1028C000F6FFF6FF9E0026001A684236111D1960B9
:1028D000136833700123A7E0086819680A1D05060C
:1028E0000BD50D681A60002D03DA2D23049A6D4272
:1028F0001370614B0A2703931BE00D681A604106B1
:10290000F1D52DB2EFE70D681968081D18602E0685
:1029100001D50D6803E06D06FBD50D68ADB2564BD1
:10292000082703936F2A00D0023723000022433385
:102930001A706368A360002B03DB042221689143B3
:102940002160002D02D1049E002B0CD0049E280093
:102950003900FDF75DFE039B013E5B5C33702B008D
:1029600005009F42F3D9082F09D12368DB0706D55C
:1029700063682269934202DC3023013E3370049B7A
:102980009B1B2361079B210000930598069B09AAC6
:10299000FFF7F4FE431C4CD1012040420BB0F0BDC8
:1029A00045310A70344A03921A68216820CA1A60B5
:1029B000080616D5CB0702D520231943216010271E
:1029C000002DB2D1202322689A432260ADE7202255
:1029D00009680A4322602200782145321170274A93
:1029E000E1E74806E6D5ADB2E4E71A680D68101DC8
:1029F0004969186013682E0601D5196002E06D065A
:102A0000FBD519800023049E2361BBE71A68111DC2
:102A10001960166800213000626800F057FB00283A
:102A200001D0801B6060636823610023049A1370E7
:102A3000A8E72369320006990598079DA847431C1B
:102A4000AAD023689B0715D4099BE0689842A5DAB1
:102A50001800A3E72200012306990598079E193262
:102A6000B047431C98D00135E368099A9B1AAB42E2
:102A7000F0DCE9E70025F7E74D3B00005E3B000096
:102A8000002370B5064D040008002B60FDF7C6FD5D
:102A9000431C03D12B68002B00D0236070BDC046BF
:102AA000B4FEFF1FF8B505000E001400002804D086
:102AB0008369002B01D100F0F9F9224B9C422ED101
:102AC0006C68A369A360A3891B0732D52369002B17
:102AD0002FD023682269F7B2981A6369F6B283424D
:102AE00005DC2100280000F03FF9002827D1A36869
:102AF0000130013BA36023685A1C22601F70636988
:102B0000834204D0A389DB0707D50A2E05D1210013
:102B1000280000F029F9002811D13000F8BD0A4B37
:102B20009C4201D1AC68CCE7084B9C42C9D1EC680F
:102B3000C7E72100280000F00BF80028C9D00126C3
:102B40007642EAE7903B0000B03B0000703B00009B
:102B5000374B70B51D6806000C00002D05D0AB6921
:102B6000002B02D1280000F0A1F9324B9C420FD17A
:102B70006C680C23E25E93B211072DD4D90611D4F0
:102B800009230120336037331343A381404270BDD2
:102B9000294B9C4201D1AC68EBE7284B9C42E8D121
:102BA000EC68E6E75B0713D5616B002908D02300CA
:102BB0004433994202D03000FFF7D6FB0023636311
:102BC0002422A3899343A3810023636023692360A4
:102BD0000823A2891343A3812369002B0BD1A021D1
:102BE0008022A389890092000B40934203D02100E8
:102BF000300000F027FA0C22A35E01201A0099B2DF
:102C0000024003420FD00022A26062695242A261D8
:102C1000002022698242BAD10A06B8D54022134365
:102C2000A3810138B3E7880700D46269A260EFE7A7
:102C300008FEFF1F903B0000B03B0000703B00000F
:102C4000062010B500F088FA012000F093FB000088
:102C5000F7B58B8905000C001A075FD44A68002A73
:102C600004DC0A6C002A01DC0020FEBDE76A002FAC
:102C7000FAD0002280212E682A601A0049010A40F9
:102C80000B4234D0606DA3895B0706D56368C01A18
:102C9000636B002B01D0236CC01A0200216A002351
:102CA0002800E76AB847A189431C06D12B681D2B71
:102CB00031D82C4ADA40D3072DD50023636023692D
:102CC0002360CB0405D5431C02D12B68002B00D117
:102CD0006065616B2E600029C6D0230044339942A1
:102CE00002D02800FFF740FB00206063BDE701230E
:102CF0002800216AB847431CC5D12B68002BC2D0DD
:102D00001D2B01D0162B01D12E60ADE74023A289E7
:102D10001343A381A9E740230B43FAE70F69002F70
:102D2000A2D00A680F60D21B019200229B0700D13B
:102D30004A69A260019B002B00DC95E73A0028005D
:102D4000019B216AA66AB047002806DC40230120C7
:102D5000A28940421343A38187E7019B3F181B1AB6
:102D60000193E7E7010040200B6970B505000C00F6
:102D7000002B02D10025280070BD002804D08369F3
:102D8000002B01D100F092F8144B9C421BD16C68CF
:102D90000C22A35E002BEDD0626ED20704D49B05FB
:102DA00002D4A06D00F023F928002100FFF750FFA6
:102DB000636E0500DB07DED4A3899B05DBD4A06D21
:102DC00000F016F9D7E7064B9C4201D1AC68DFE76B
:102DD000044B9C42DCD1EC68DAE7C046903B000033
:102DE000B03B0000703B0000002310B504000360FE
:102DF00043608360818143661900C281036143613E
:102E0000836108225C30FFF7A7FA054B24626362F6
:102E1000044BA362044BE362044B236310BDC04622
:102E200099310000C1310000F93100002532000065
:102E300010B5024900F0BAF810BDC046692D000077
:102E400070B568254A1E55430E0029007431FFF7FE
:102E5000D5FA041E08D000212A00016046600C301B
:102E6000A0606832FFF778FA200070BD10B5024804
:102E700000F0BDF810BDC046B1FEFF1F10B50248FE
:102E800000F0B6F810BDC046B1FEFF1F10B50248F5
:102E900000F0ADF810BDC046B2FEFF1F10B50248ED
:102EA00000F0A6F810BDC046B2FEFF1F13B5040027
:102EB000FFF7ECFFA369002B02D0FFF7EFFF13BD74
:102EC000A364E3642365134B134A1B68A262019356
:102ED000A34201D10123A361200000F01FF860602C
:102EE000200000F01BF8A060200000F017F800227E
:102EF0000421E0606068FFF777FF01220921A068E4
:102F0000FFF772FF02221221E068FFF76DFF012335
:102F1000A361D2E7383B0000312E0000F8B507006E
:102F2000FFF7A4FF1F4B1E68B369002B02D13000CE
:102F3000FFF7BCFF4836B4687368013B04D53368BB
:102F4000002B22D03668F6E70C22A55E002D1AD1A0
:102F50002000154B5830E360656600F047F8FFF736
:102F60008DFF2000082229002560A560656025618D
:102F70006561A5615C30FFF7EFF96563A563A56442
:102F8000E5642000F8BD6834D7E704213800FFF776
:102F900057FF041E3060D5D1FFF770FF0C233B6054
:102FA000EFE7C046383B00000100FFFFF7B5040023
:102FB00006000027019148346368A5680093009BD0
:102FC000013B009304D52468002CF5D13800FEBDE8
:102FD000AB89012B08D90E22AB5E013304D0290046
:102FE0003000019B984707436835E8E77047704712
:102FF0007047000070B50E001D000E23C95E14005E
:1030000096B0002908DA0C22B35E00222A601B0663
:1030100011D48023DB000FE06A4600F02FF900286E
:10302000F1DBF02301991B021940054BC9184B42F3
:1030300059412960EDE740230020236016B070BDA0
:1030400000E0FFFFF7B502268B8905000C00334234
:1030500006D0230047332360236101236361F7BD5A
:103060006A4601ABFFF7C6FF009907002800FFF78B
:10307000C5F9002808D10C22A35E9A05EFD40322DB
:1030800093431E43A681E4E70F4BAB628023A289E2
:1030900020601343A381009B20616361019B002B8F
:1030A0000DD028000E23E15E00F0FAF8002806D0CB
:1030B0000322A38993431A0001231343A381A08908
:1030C0000743A781CBE7C046312E0000C9B2821862
:1030D000904201D10020704703788B42FBD0013031
:1030E000F6E7000010B50248FFF781FF10BDC046AB
:1030F000B0FEFF1F10B50248FFF77AFF10BDC046B3
:10310000B0FEFF1F70B504000D001F2904D916235F
:1031100003600120404270BD436C002B04D08A0044
:103120009B181A68002A08D1200000F031F82A0004
:103130000100200000F01AF8EDE70020012AEAD093
:10314000511C03D1162301302360E4E7002428003A
:103150001C6090472000DEE710B5034B01001868A3
:10316000FFF7D0FF10BDC04608FEFF1F002370B55B
:10317000064D0400080011002B6000F0EBF8431C22
:1031800003D12B68002B00D0236070BDB4FEFF1F5D
:1031900010B500F0CFF810BD70B50C000E25495FDA
:1031A00000F0A4F8002803DB636D1B18636570BD95
:1031B000A389024A1340A381F9E7C046FFEFFFFF4E
:1031C000F8B51F008B8905000C001600DB0505D53E
:1031D0000E23C95E0022022300F074F8A389054A79
:1031E00028001340A38132000E23E15E3B0000F073
:1031F0001FF8F8BDFFEFFFFF70B50C000E25495F0B
:1032000000F060F8A389421C03D1054A1340A38152
:1032100070BD802252011343A3816065F8E7C04668
:10322000FFEFFFFF10B50E23C95E00F015F810BDCB
:1032300070B50400080011001A000023054D2B6032
:10324000FDF74CFB431C03D12B68002B00D02360FF
:1032500070BDC046B4FEFF1F002370B5064D0400CC
:1032600008002B6000F056F8431C03D12B68002B9C
:1032700000D0236070BDC046B4FEFF1F002370B5B0
:10328000064D0400080011002B6000F04BF8431CB1
:1032900003D12B68002B00D0236070BDB4FEFF1F4C
:1032A000002370B5064D040008002B6000F04AF8BA
:1032B000431C03D12B68002B00D0236070BDC04697
:1032C000B4FEFF1F70B50400080011001A000023AF
:1032D000054D2B6000F046F8431C03D12B68002BF2
:1032E00000D0236070BDC046B4FEFF1F70B504005F
:1032F000080011001A000023054D2B60FDF71AFB92
:10330000431C03D12B68002B00D0236070BDC04646
:10331000B4FEFF1F58220120014B40421A60704743
:10332000B4FEFF1F58220120014B40421A60704733
:10333000B4FEFF1F58220120014B40421A60704723
:10334000B4FEFF1F5822024B00201A607047C0468F
:10335000B4FEFF1F58220120014B40421A60704703
:10336000B4FEFF1F58220120014B40421A607047F3
:10337000B4FEFF1FFEE7C04670696E203C2033326A
:1033800055000000633A5C667265657363616C6545
:103390005C6B73646B5F312E332E305C74657374B9
:1033A0005C706C6174666F726D5C68616C5C696E98
:1033B000635C66736C5F706F72745F68616C2E68BB
:1033C0000000000001000000802500000000000057
:1033D00070696E203C20333255000000633A5C6611
:1033E0007265657363616C655C6B73646B5F312ED2
:1033F000332E305C746573745C706C6174666F72CC
:103400006D5C68616C5C696E635C66736C5F706F49
:1034100072745F68616C2E6800000000008000001C
:1034200000000000010000004E554C4C20213D20C2
:10343000636C6F636B436F6E666967735074720081
:10344000433A5C467265657363616C655C4B5344DB
:103450004B5F312E332E305C706C6174666F726D11
:103460005C73797374656D5C7372635C636C6F63BA
:103470006B5C66736C5F636C6F636B5F6D616E61D9
:103480006765722E630000004E554C4C20213D2094
:1034900063616C6C6261636B735074720000000056
:1034A000746172676574436F6E6669672D3E6D6304
:1034B000676C6974655F6D6F6465203C206B4D635C
:1034C000676C6974654D6F646553746F70000000BC
:1034D000696E7374616E6365203C204F53435F498E
:1034E0004E5354414E43455F434F554E54000000E8
:1034F000696E7374616E6365203C205254435F496A
:103500004E5354414E43455F434F554E54000000C7
:103510004E554C4C20213D20636F6E66696700005C
:10352000433A5C467265657363616C655C4B5344FA
:103530004B5F312E332E305C706C6174666F726D30
:103540005C73797374656D5C7372635C636C6F63D9
:103550006B5C4D4B4C30335A345C66736C5F636C00
:103560006F636B5F4D4B4C30335A342E6300000059
:10357000696E7374616E6365203C2073697A656F50
:103580006628706F7274476174655461626C652956
:103590002F73697A656F6628706F727447617465FE
:1035A0005461626C655B305D29000000696E737464
:1035B000616E6365203C2073697A656F662861647B
:1035C00063476174655461626C65292F73697A651C
:1035D0006F6628616463476174655461626C655B02
:1035E000305D2900696E7374616E6365203C2073E1
:1035F000697A656F662873706947617465546162A2
:103600006C65292F73697A656F66287370694761E5
:1036100074655461626C655B305D2900696E73741A
:10362000616E6365203C2073697A656F6628693234
:1036300063476174655461626C65292F73697A65AB
:103640006F6628693263476174655461626C655BBB
:10365000305D2900696E7374616E6365203C207370
:10366000697A656F66286C707561727447617465FC
:103670005461626C65292F73697A656F66286C7076
:1036800075617274476174655461626C655B305D2D
:1036900029000000696E7374616E6365203C2073BD
:1036A000697A656F662874706D47617465546162EC
:1036B0006C65292F73697A656F662874706D476130
:1036C00074655461626C655B305D290030203C3D5F
:1036D000206972714E756D6265720000633A5C66B6
:1036E0007265657363616C655C6B73646B5F312ECF
:1036F000332E305C706C6174666F726D5C737973BD
:1037000074656D5C696E635C66736C5F696E74652D
:1037100072727570745F6D616E616765722E68009C
:103720006972714E756D626572203C3D2046534C46
:103730005F464541545552455F494E544552525596
:1037400050545F4952515F4D415800006C70756193
:1037500072745374617465507472202626206C70E4
:103760007561727455736572436F6E6669670000A8
:10377000433A5C467265657363616C655C4B5344A8
:103780004B5F312E332E305C706C6174666F726DDE
:103790005C647269766572735C7372635C6C70757D
:1037A0006172745C66736C5F6C70756172745F6477
:1037B00072697665722E6300696E7374616E6365FB
:1037C000203C204C50554152545F494E5354414E79
:1037D00043455F434F554E540000000074784275D6
:1037E0006666000072784275666600007053656D0B
:1037F00000000000433A5C467265657363616C6566
:103800005C4B53444B5F312E332E305C706C6174D3
:10381000666F726D5C6F73615C7372635C66736C10
:103820005F6F735F6162737472616374696F6E5FFF
:10383000626D2E6300000000704D757465780000A5
:10384000704576656E740000736574466C616773CD
:103850000000000068616E646C65720071756575CA
:10386000650000000D0A2B2B2B2B2B2B2B2B2B2B2E
:103870002B2B2B2B2B2B204C505541525420526577
:103880006365697665202B2B2B2B2B2B2B2B2B2B5E
:103890002B2B2B2B2B2B2B0D0A0000000D0A576115
:1038A000697420666F72204C5055415254207472D6
:1038B000616E736D697373696F6E2066726F6D20D0
:1038C0004C45440D0A000000504F52545F48414C93
:1038D0005F5365744D75784D6F646500000000009E
:1038E0000000010000000001504F52545F48414C5D
:1038F0005F5365744D75784D6F646500434C4F435D
:103900004B5F5359535F5365744D63676C697465BE
:103910004D6F646500000000434C4F434B5F5359AB
:10392000535F4F7363496E69740000000050064096
:10393000898A0000434C4F434B5F5359535F456E98
:1039400061626C65506F7274436C6F636B00000052
:10395000434C4F434B5F5359535F456E61626C65F7
:103960004C7075617274436C6F636B00CE12000013
:10397000F812000026130000541300008213000008
:10398000EA130000041400001E14000038140000A4
:10399000521400001E15000014150000F61400005B
:1039A000EC140000E2140000D8140000CE14000053
:1039B000C4140000C4140000C4140000C4140000A7
:1039C000001500002815000028150000281500002B
:1039D000281500000A1500004C50554152545F4410
:1039E00052565F496E697400494E545F5359535F94
:1039F000456E61626C654952510000004C50554162
:103A000052545F4452565F53656E64446174610062
:103A10004C50554152545F4452565F47657454723E
:103A2000616E736D69745374617475730000000086
:103A30004C50554152545F4452565F52656365691C
:103A400076654461746100004C50554152545F44A6
:103A500052565F4765745265636569766553746154
:103A6000747573004C50554152545F4452565F5325
:103A70007461727453656E64446174610000000087
:103A80004C50554152545F4452565F436F6D706CB9
:103A900065746553656E6444617461004C505541B2
:103AA00052545F4452565F53746172745265636539
:103AB00069766544617461004C50554152545F44CD
:103AC00052565F436F6D706C6574655265636569CE
:103AD0007665446174610000004005404F53415FCA
:103AE00053656D6143726561746500004F53415FBA
:103AF00053656D61506F7374002C2066756E63742E
:103B0000696F6E3A2000617373657274696F6E201D
:103B100022257322206661696C65643A2066696CAF
:103B20006520222573222C206C696E652025642572
:103B30007325730A000000000CFEFF1F232D302B9D
:103B40002000686C4C00656667454647003031329E
:103B500033343536373839414243444546003031F5
:103B60003233343536373839616263646566000054
:103B70000000000000000000000000000000000045
:103B80000000000000000000000000000000000035
:103B90000000000000000000000000000000000025
:103BA0000000000000000000000000000000000015
:103BB0000000000000000000000000000000000005
:103BC00000000000000000000000000000000000F5
:103BD000F8B5C046F8BC08BC9E467047F8B5C0466C
:083BE000F8BC08BC9E467047CA
:083BE80070C8FF7F010000001E
:043BF0003904000094
:043BF40011040000B8
:103BF80000093D000C0000000CFEFF1F0000000043
:103C0800903B0000B03B0000703B0000000000004B
:103C1800000000000000000000000000000000009C
:103C2800000000000000000000000000000000008C
:103C3800000000000000000000000000000000007C
:103C4800000000000000000000000000000000006C
:0C3C580000000000000000000000000060
:04000003000004D91C
:00000001FF
