:1000000000060020D9040000E9040000E904000013
:1000100000000000000000000000000000000000E0
:10002000000000000000000000000000E9040000E3
:100030000000000000000000E9040000E9040000E6
:10004000E9040000E9040000E9040000E9040000FC
:10005000E9040000E9040000E9040000E9040000EC
:10006000E9040000E9040000E9040000E9040000DC
:10007000C9060000E9040000E9040000E9040000EA
:10008000E9040000E9040000E9040000E9040000BC
:10009000E9040000E9040000E9040000E9040000AC
:1000A000E9040000E9040000E9040000E90400009C
:1000B000E9040000E9040000E9040000E90400008C
:10040000FFFFFFFFFFFFFFFFFFFFFFFFFE3DFFFFBF
:1004100010B5064C2378002B07D1054B002B02D0DA
:10042000044800E000BF0123237010BD68FEFF1FD9
:100430000000000014120000044B10B5002B03D084
:100440000349044800E000BF10BDC04600000000A2
:100450006CFEFF1F14120000402292029A1A92466C
:100460007047C046174B002B00D1134B9D46FFF73A
:10047000F3FF00218B460F461348144A121A00F06E
:100480007BFE0E4B002B00D098470D4B002B00D06D
:1004900098470020002104000D000D48002802D0DC
:1004A0000C4800E000BF00F043FE2000290000F0EF
:1004B000B5F800F027FEC04600000800000000006C
:1004C000000000000006002068FEFF1F90FEFF1FD6
:1004D000000000000000000072B600F033F900F0E8
:1004E00043F962B6FFF7BEFF00480047E904000089
:1004F00002B4714649084900095C49008E4402BCB7
:100500007047C046002243088B4274D303098B42D4
:100510005FD3030A8B4244D3030B8B4228D3030CD3
:100520008B420DD3FF22090212BA030C8B4202D375
:100530001212090265D0030B8B4219D300E0090A9D
:10054000C30B8B4201D3CB03C01A5241830B8B42A6
:1005500001D38B03C01A5241430B8B4201D34B038F
:10056000C01A5241030B8B4201D30B03C01A5241F4
:10057000C30A8B4201D3CB02C01A5241830A8B4279
:1005800001D38B02C01A5241430A8B4201D34B0262
:10059000C01A5241030A8B4201D30B02C01A5241C6
:1005A000CDD2C3098B4201D3CB01C01A524183097A
:1005B0008B4201D38B01C01A524143098B4201D3B4
:1005C0004B01C01A524103098B4201D30B01C01ADF
:1005D0005241C3088B4201D3CB00C01A5241830859
:1005E0008B4201D38B00C01A524143088B4201D386
:1005F0004B00C01A5241411A00D2014652411046E6
:100600007047FFE701B5002000F006F802BDC046C4
:100610000029F7D076E770477047C04670B594B0B0
:1006200000246B4601AD2A009C70DC70214B43CB4B
:1006300043C2200000F0BAF9012000F0B7F900F041
:1006400059F880231C4A9B0013601C4A04A91360BC
:1006500020002A0000F04AFB36222000184900F052
:10066000A9FB0021080000F0B1FB0828F9D02A22DC
:100670000020144900F09EFB0021080000F0A6FBBA
:100680000828F9D001246B4622000020991C00F0B4
:10069000ABFB0021080000F0B3FB0928F9D06B4642
:1006A0006A469B780020D3706B462200D91C00F06C
:1006B00081FBE8E78C11000004A0145408A0145436
:1006C00098110000CE11000010B5002000F0A6FB2C
:1006D00010BD1FB50822002102A800F04DFD8023A7
:1006E0001B020193012301AC21000020237200F0C2
:1006F000C3F81FBD222270B500250C4B1A700C4B9D
:100700001D600C4B1D60FFF7E4FF0B4C200009300F
:1007100000F002F92800E11D00F098F8200000F038
:100720005BF8064B064A1A6070BDC04600E0074001
:10073000489014544C901454F811000000FEFF1F10
:10074000006CDC020823064A9178194202D09178A5
:100750000B43937088230021024A5B01D1507047FC
:1007600000D00740007004401249134810B5814280
:1007700005D00022114B9B089B009A420FD1104BD1
:10078000104A9960002310491048521A9A420AD11F
:1007900000210F4B0F4AD21A013A08D210BD8458DB
:1007A0008C500432E9E7CC5CC4540133EEE7197095
:1007B0000133F1E70000000000000000000000002D
:1007C00000ED00E0A41200003C12000000FEFF1F3C
:1007D00068FEFF1F90FEFF1F037810B50400032B77
:1007E00024D01DD8013B012B1CD82279E178114877
:1007F00000F0EAFB002812D1A3790F4ADB01DBB23B
:10080000137063780D4A5B00DBB21370A2780C4B57
:100810001A70E2780B4B1A7062790B4B1A7010BD8C
:10082000042BE2D0034800F0B7FBE3E7014800F0F7
:1008300001FCDFE700400640184086530040865028
:10084000004006500140065018401650094B8000E9
:1008500010B5C4589C2094220B784005DB0120433E
:10086000DBB203704B7852055B012243DBB213709D
:1008700010BDC0460412000070B50B7A05000C00D4
:10088000012B14D1097962794B1E9941531E9A416B
:10089000A379C800591E8B41E179920001435B00A6
:1008A000114319430E4BAA00D05800F0E9FB210078
:1008B000237A0C4A9B00DBB2137028000931FFF742
:1008C000C5FF02232289FF339A4203D1064A1378D7
:1008D000002BFCD02268054B00201A6070BDC0467A
:1008E00004120000014006510640865088FEFF1F9A
:1008F000F821084A43099B009B180905C2050A40D4
:1009000013438022520513431F2210401E3A824097
:100910001A6070472880044037B583784178009387
:1009200000230400054D1A00280000F0B1FB2378D5
:1009300003489B042843036037BDC0460070044051
:1009400000000819074B82B01B68002001939C230C
:10095000019A5B0513431B78834201D0024B186850
:1009600002B070470412000088FEFF1F0B4B10B549
:100970001868C0B202280AD003280BD00138431EE1
:100980009841074B40421840064BC01810BDFFF776
:10099000D9FFFBE7044800F0CDFAF7E704800C5DCF
:1009A000009423FD006CDC020040064010B5024BB1
:1009B000185CFFF79DFF10BD081200008022024B5B
:1009C00052031A607047C0463880045A074B020031
:1009D0000360074B0832436000238360CC235B0530
:1009E00013431A68002AFCD1026170470400000F0B
:1009F00000C01FC0F0B50E0087B004909100300019
:100A00001400FFF77FFD80B2031C002800D10123F2
:100A10009BB2300099000193FFF774FD271A8442BE
:100A200000D2071B05252B00634303930423029385
:100A300030000399FFF766FD80B2031C002800D147
:100A400001239BB21900300069430593FFF75AFD5B
:100A5000231A844200D2031BBB4203D81F00059B0C
:100A600002950193039B01351B190393212DDFD1BF
:100A700064212000FFF746FD032343430220BB42CD
:100A800019D9029B043B032B06D8C423049A5B05A7
:100A90001343802292021A60E1228320049B5205B4
:100AA0001A43029B4005013B1B061360049B18433D
:100AB000019B0360002007B0F0BDF4235B050343F6
:100AC000022903D1802292051A60704790220830D3
:100AD00052051043090100220160F5E78423083024
:100AE0004A085B05034352001A6080235B051843E4
:100AF0000123194001607047012310B58B400400A9
:100B0000080C04280AD8FFF7F3FC030E14171A0088
:100B10008020002A03D000050443236010BDC004D8
:100B2000DB430443F9E7201D8024002A0AD0240572
:100B3000F2E720000830F7E720000C30F4E720004F
:100B40001030F1E7E404EBE70200002300B5080CE5
:100B5000042808D80133FFF7CBFC03080A0C0E0069
:100B60001068C8400340180000BD5068F9E790685D
:100B7000F7E7D068F5E71069F3E710B5FFF7E4FF92
:100B800010BD0000174A0300881800B5102827D8A8
:100B9000FFF7AEFC23201714110E09262626261A6D
:100BA000262626261D008022520300205A6000BD02
:100BB00080221203F9E78022D202F6E78022920215
:100BC000F3E780225202F0E780221206EDE780224E
:100BD000D205EAE780221202E7E78022D201E4E7A9
:100BE0000420E4E7F2FFFEFF70B50D4B8400E358EC
:100BF00008201E7DF5B2002E10D10630002A0DD03F
:100C0000DA60012259601A75DC23064880222058D8
:100C10005B0508300343280012041A6070BDC0460B
:100C200084FEFF1F0C1200000A4B800070B5C458F0
:100C3000094B0025C258DC2308325B0513431D60B5
:100C4000A37DAB4203D02000183000F036FA2575A2
:100C500070BDC04684FEFF1F0C12000070B5104B23
:100C600015008200D358587D002803D01C6B092042
:100C7000002C14D00E20002D11D00A489960845801
:100C8000012220005A7508491D61FFF735FFD42362
:100C900008345B051C43802300209B03236070BD48
:100CA00084FEFF1F0C1200001B0002000C4B800092
:100CB00070B5C4580B4B0025C058D42302005B0507
:100CC000083213431D602A000749FFF715FFE37D33
:100CD000AB4203D02000243000F0EFF9657570BD01
:100CE00084FEFF1F0C1200001B000200F7B58300FA
:100CF000019316002A4B019A0090D7580D000D2041
:100D0000002F4BD1274B3900D4582800402200F047
:100D100033FA234B019A0098D5503378224A9B0628
:100D20001360FFF74BFE2000FFF750FE280039004C
:100D3000183000F0BBF928003900243000F0B6F973
:100D40000098FFF713FE726801002000FFF752FEC3
:100D50002000B17AFFF7B1FE2000317AFFF7BEFE26
:100D6000B423727A5B05234352031A60CC2280219C
:100D7000012308345205224309032B701160C82255
:100D8000520514438022D20200992260074A38009B
:100D9000525C1F210A409340054A1360FEBDC046C5
:100DA00084FEFF1F0C12000004800C5D04FEFF1F78
:100DB00000E100E0044B10B58400E35800249C756A
:100DC000FFF712FF10BDC04684FEFF1F054B8000D9
:100DD000C358D868002900D00860431E9841C0005D
:100DE0007047C04684FEFF1F044B10B58400E358D3
:100DF0000024DC75FFF732FF10BDC04684FEFF1FE4
:100E0000054B8000C3581B69002900D00B600020EF
:100E1000834200D00930704784FEFF1FF8B5314A85
:100E200083009C58304A06009D58237D002B02D138
:100E3000637D002B42D0D4232F005B051A000837B6
:100E40003A431268002A0DD02A1D13431B68002B59
:100E500008D0EB68A2681370236B002B2FD0210001
:100E600030009847DC235B051F433A68002A1BD0FB
:100E70002A1D13431B68002B16D0E368002B13D0E8
:100E80002778002F10D063681A78EA60A26B002AD6
:100E900022D0210030009047E368013FFFB2002BD1
:100EA000EFD13000FFF7C0FE28001049FFF765FEC4
:100EB000002803D028000D49FFF764FEF8BDA368A1
:100EC0000133A3602369013B23612369002BC9D14E
:100ED0003000FFF7EBFEC5E701336360E368013BD9
:100EE000E360D9E784FEFF1F0C120000130001002D
:100EF00084225205024312780300D0B2002A05D1A1
:100F0000094A991D0A431278012A0CD18020013325
:100F1000400503431878013843425841034B40428F
:100F20001840034BC018704700000811808D5B000B
:100F300080841E00020070B5074B083213431C78F2
:100F4000064B103213431D78FFF7D2FFEDB2E4B227
:100F50006419E04070BDC046000090100000101001
:100F60000C4A811D0A4312780300D0B2012A04D032
:100F700002280BD000280BD1704780220133520584
:100F800013431B78002BF7D10220F5E70320F3E78A
:100F90000620F1E70000081102009C2318325B05CF
:100FA000134380221A700022054B03431A70054B2D
:100FB000063018430378DAB2002BFBD110007047DB
:100FC000000008130000081170B504000E001500A1
:100FD000FFF7C6FF01281ED1002E20D08023621CFF
:100FE0005B0513431E70842302225B0523431A70A2
:100FF00022000D4B0832134340226D00EDB21D70EC
:101000000A4B0B48234306341A7004432378012B00
:10101000FCD1002070BD0228E0D1012EDED12000DD
:10102000FFF7BAFFDAE7C04600009010000008138F
:10103000000008110F4A030012680120002A17D08F
:1010400080210D4A1A4311708822191852050A434B
:1010500012780633824205D1842252051A43117850
:101060000029FCD0054803431A78022AFCD100204D
:101070007047C04688FEFF1F0000081300000811DB
:101080000F22037893430B43DBB2037070470000D9
:101090006B46E0221B78D2021B0413400907024A68
:1010A0000B4383507047C04644100000030041705A
:1010B0000020187058609860704710B5437804009D
:1010C0000120FF2B08D000F015F863780133DBB264
:1010D000637000F003F8002010BD0000044A13689C
:1010E000002B04D0013B1360002B00D162B6704787
:1010F0008CFEFF1F72B6024A1368013313607047FB
:101100008CFEFF1F084B10B50400002B02D00021FD
:1011100000E000BF054B1868836A002B00D0984799
:10112000200000F031F8C04600000000101200005E
:1011300070B500260C4D0D4C641BA410A64209D1BD
:10114000002600F067F80A4D0A4C641BA410A64262
:1011500005D170BDB300EB5898470136EEE7B300F8
:10116000EB5898470136F2E73412000034120000C1
:10117000341200003812000003008218934200D19C
:10118000704719700133F9E7FEE7C046010000001F
:1011900080250000000000000D0A2B2B2B2B2B2B91
:1011A0002B2B2B2B2B2B2B2B2B2B204C50554152ED
:1011B000542052656365697665202B2B2B2B2B2BD6
:1011C0002B2B2B2B2B2B2B2B2B2B2B0D0A000D0A18
:1011D0005761697420666F72204C505541525420FB
:1011E0007472616E736D697373696F6E2066726F6E
:1011F0006D204C45440D0A00000000000000010075
:101200000000000100500640898A000000400540AF
:1012100008FEFF1FF8B5C046F8BC08BC9E467047E4
:0C122000F8B5C046F8BC08BC9E467047FC
:08122C002CF2FF7F010000001D
:041234003904000079
:04123800110400009D
:10123C0000093D000C000000000000000000000050
:10124C000000000000000000000000000000000092
:10125C000000000000000000000000000000000082
:10126C000000000000000000000000000000000072
:10127C000000000000000000000000000000000062
:10128C000000000000000000000000000000000052
:08129C0000000000000000004A
:04000003000004D91C
:00000001FF
